{
  "contractName": "Devices",
  "abi": [
    {
      "inputs": [],
      "stateMutability": "nonpayable",
      "type": "constructor"
    },
    {
      "anonymous": false,
      "inputs": [
        {
          "indexed": true,
          "internalType": "address",
          "name": "account",
          "type": "address"
        },
        {
          "indexed": true,
          "internalType": "address",
          "name": "operator",
          "type": "address"
        },
        {
          "indexed": false,
          "internalType": "bool",
          "name": "approved",
          "type": "bool"
        }
      ],
      "name": "ApprovalForAll",
      "type": "event"
    },
    {
      "anonymous": false,
      "inputs": [
        {
          "indexed": true,
          "internalType": "address",
          "name": "previousOwner",
          "type": "address"
        },
        {
          "indexed": true,
          "internalType": "address",
          "name": "newOwner",
          "type": "address"
        }
      ],
      "name": "OwnershipTransferred",
      "type": "event"
    },
    {
      "anonymous": false,
      "inputs": [
        {
          "indexed": true,
          "internalType": "address",
          "name": "operator",
          "type": "address"
        },
        {
          "indexed": true,
          "internalType": "address",
          "name": "from",
          "type": "address"
        },
        {
          "indexed": true,
          "internalType": "address",
          "name": "to",
          "type": "address"
        },
        {
          "indexed": false,
          "internalType": "uint256[]",
          "name": "ids",
          "type": "uint256[]"
        },
        {
          "indexed": false,
          "internalType": "uint256[]",
          "name": "values",
          "type": "uint256[]"
        }
      ],
      "name": "TransferBatch",
      "type": "event"
    },
    {
      "anonymous": false,
      "inputs": [
        {
          "indexed": true,
          "internalType": "address",
          "name": "operator",
          "type": "address"
        },
        {
          "indexed": true,
          "internalType": "address",
          "name": "from",
          "type": "address"
        },
        {
          "indexed": true,
          "internalType": "address",
          "name": "to",
          "type": "address"
        },
        {
          "indexed": false,
          "internalType": "uint256",
          "name": "id",
          "type": "uint256"
        },
        {
          "indexed": false,
          "internalType": "uint256",
          "name": "value",
          "type": "uint256"
        }
      ],
      "name": "TransferSingle",
      "type": "event"
    },
    {
      "anonymous": false,
      "inputs": [
        {
          "indexed": false,
          "internalType": "string",
          "name": "value",
          "type": "string"
        },
        {
          "indexed": true,
          "internalType": "uint256",
          "name": "id",
          "type": "uint256"
        }
      ],
      "name": "URI",
      "type": "event"
    },
    {
      "stateMutability": "nonpayable",
      "type": "fallback"
    },
    {
      "inputs": [
        {
          "internalType": "address",
          "name": "account",
          "type": "address"
        },
        {
          "internalType": "uint256",
          "name": "id",
          "type": "uint256"
        }
      ],
      "name": "balanceOf",
      "outputs": [
        {
          "internalType": "uint256",
          "name": "",
          "type": "uint256"
        }
      ],
      "stateMutability": "view",
      "type": "function",
      "constant": true
    },
    {
      "inputs": [
        {
          "internalType": "address[]",
          "name": "accounts",
          "type": "address[]"
        },
        {
          "internalType": "uint256[]",
          "name": "ids",
          "type": "uint256[]"
        }
      ],
      "name": "balanceOfBatch",
      "outputs": [
        {
          "internalType": "uint256[]",
          "name": "",
          "type": "uint256[]"
        }
      ],
      "stateMutability": "view",
      "type": "function",
      "constant": true
    },
    {
      "inputs": [
        {
          "internalType": "address",
          "name": "account",
          "type": "address"
        },
        {
          "internalType": "address",
          "name": "operator",
          "type": "address"
        }
      ],
      "name": "isApprovedForAll",
      "outputs": [
        {
          "internalType": "bool",
          "name": "",
          "type": "bool"
        }
      ],
      "stateMutability": "view",
      "type": "function",
      "constant": true
    },
    {
      "inputs": [],
      "name": "owner",
      "outputs": [
        {
          "internalType": "address",
          "name": "",
          "type": "address"
        }
      ],
      "stateMutability": "view",
      "type": "function",
      "constant": true
    },
    {
      "inputs": [],
      "name": "renounceOwnership",
      "outputs": [],
      "stateMutability": "nonpayable",
      "type": "function"
    },
    {
      "inputs": [
        {
          "internalType": "address",
          "name": "from",
          "type": "address"
        },
        {
          "internalType": "address",
          "name": "to",
          "type": "address"
        },
        {
          "internalType": "uint256[]",
          "name": "ids",
          "type": "uint256[]"
        },
        {
          "internalType": "uint256[]",
          "name": "amounts",
          "type": "uint256[]"
        },
        {
          "internalType": "bytes",
          "name": "data",
          "type": "bytes"
        }
      ],
      "name": "safeBatchTransferFrom",
      "outputs": [],
      "stateMutability": "nonpayable",
      "type": "function"
    },
    {
      "inputs": [
        {
          "internalType": "address",
          "name": "from",
          "type": "address"
        },
        {
          "internalType": "address",
          "name": "to",
          "type": "address"
        },
        {
          "internalType": "uint256",
          "name": "id",
          "type": "uint256"
        },
        {
          "internalType": "uint256",
          "name": "amount",
          "type": "uint256"
        },
        {
          "internalType": "bytes",
          "name": "data",
          "type": "bytes"
        }
      ],
      "name": "safeTransferFrom",
      "outputs": [],
      "stateMutability": "nonpayable",
      "type": "function"
    },
    {
      "inputs": [
        {
          "internalType": "address",
          "name": "operator",
          "type": "address"
        },
        {
          "internalType": "bool",
          "name": "approved",
          "type": "bool"
        }
      ],
      "name": "setApprovalForAll",
      "outputs": [],
      "stateMutability": "nonpayable",
      "type": "function"
    },
    {
      "inputs": [
        {
          "internalType": "bytes4",
          "name": "interfaceId",
          "type": "bytes4"
        }
      ],
      "name": "supportsInterface",
      "outputs": [
        {
          "internalType": "bool",
          "name": "",
          "type": "bool"
        }
      ],
      "stateMutability": "view",
      "type": "function",
      "constant": true
    },
    {
      "inputs": [
        {
          "internalType": "uint256",
          "name": "",
          "type": "uint256"
        }
      ],
      "name": "tokenMaxSupply",
      "outputs": [
        {
          "internalType": "uint256",
          "name": "",
          "type": "uint256"
        }
      ],
      "stateMutability": "view",
      "type": "function",
      "constant": true
    },
    {
      "inputs": [
        {
          "internalType": "uint256",
          "name": "",
          "type": "uint256"
        }
      ],
      "name": "tokenSupply",
      "outputs": [
        {
          "internalType": "uint256",
          "name": "",
          "type": "uint256"
        }
      ],
      "stateMutability": "view",
      "type": "function",
      "constant": true
    },
    {
      "inputs": [
        {
          "internalType": "address",
          "name": "newOwner",
          "type": "address"
        }
      ],
      "name": "transferOwnership",
      "outputs": [],
      "stateMutability": "nonpayable",
      "type": "function"
    },
    {
      "inputs": [
        {
          "internalType": "uint256",
          "name": "",
          "type": "uint256"
        }
      ],
      "name": "uri",
      "outputs": [
        {
          "internalType": "string",
          "name": "",
          "type": "string"
        }
      ],
      "stateMutability": "view",
      "type": "function",
      "constant": true
    },
    {
      "inputs": [
        {
          "internalType": "address",
          "name": "store",
          "type": "address"
        }
      ],
      "name": "approveStore",
      "outputs": [],
      "stateMutability": "nonpayable",
      "type": "function"
    },
    {
      "inputs": [
        {
          "internalType": "address",
          "name": "store",
          "type": "address"
        }
      ],
      "name": "revokeStore",
      "outputs": [],
      "stateMutability": "nonpayable",
      "type": "function"
    },
    {
      "inputs": [
        {
          "internalType": "address",
          "name": "store",
          "type": "address"
        }
      ],
      "name": "isApprovedStore",
      "outputs": [
        {
          "internalType": "bool",
          "name": "",
          "type": "bool"
        }
      ],
      "stateMutability": "view",
      "type": "function",
      "constant": true
    },
    {
      "inputs": [],
      "name": "getCurrentTokenId",
      "outputs": [
        {
          "internalType": "uint256",
          "name": "",
          "type": "uint256"
        }
      ],
      "stateMutability": "view",
      "type": "function",
      "constant": true
    },
    {
      "inputs": [],
      "name": "getAllSpecs",
      "outputs": [
        {
          "components": [
            {
              "internalType": "string",
              "name": "model",
              "type": "string"
            },
            {
              "internalType": "string",
              "name": "color",
              "type": "string"
            },
            {
              "internalType": "uint256",
              "name": "price",
              "type": "uint256"
            },
            {
              "internalType": "bytes",
              "name": "others",
              "type": "bytes"
            }
          ],
          "internalType": "struct Devices.Spec[]",
          "name": "",
          "type": "tuple[]"
        }
      ],
      "stateMutability": "view",
      "type": "function",
      "constant": true
    },
    {
      "inputs": [
        {
          "internalType": "address",
          "name": "account",
          "type": "address"
        }
      ],
      "name": "getOwnedDevices",
      "outputs": [
        {
          "internalType": "uint256[]",
          "name": "",
          "type": "uint256[]"
        }
      ],
      "stateMutability": "view",
      "type": "function",
      "constant": true
    },
    {
      "inputs": [
        {
          "internalType": "uint256",
          "name": "specId",
          "type": "uint256"
        }
      ],
      "name": "getSpecsById",
      "outputs": [
        {
          "components": [
            {
              "internalType": "string",
              "name": "model",
              "type": "string"
            },
            {
              "internalType": "string",
              "name": "color",
              "type": "string"
            },
            {
              "internalType": "uint256",
              "name": "price",
              "type": "uint256"
            },
            {
              "internalType": "bytes",
              "name": "others",
              "type": "bytes"
            }
          ],
          "internalType": "struct Devices.Spec",
          "name": "",
          "type": "tuple"
        }
      ],
      "stateMutability": "view",
      "type": "function",
      "constant": true
    },
    {
      "inputs": [
        {
          "internalType": "string",
          "name": "model",
          "type": "string"
        }
      ],
      "name": "getSpecsByModel",
      "outputs": [
        {
          "components": [
            {
              "internalType": "string",
              "name": "model",
              "type": "string"
            },
            {
              "internalType": "string",
              "name": "color",
              "type": "string"
            },
            {
              "internalType": "uint256",
              "name": "price",
              "type": "uint256"
            },
            {
              "internalType": "bytes",
              "name": "others",
              "type": "bytes"
            }
          ],
          "internalType": "struct Devices.Spec",
          "name": "",
          "type": "tuple"
        }
      ],
      "stateMutability": "view",
      "type": "function",
      "constant": true
    },
    {
      "inputs": [
        {
          "internalType": "uint256",
          "name": "id",
          "type": "uint256"
        },
        {
          "internalType": "string",
          "name": "model",
          "type": "string"
        },
        {
          "internalType": "string",
          "name": "color",
          "type": "string"
        },
        {
          "internalType": "uint256",
          "name": "price",
          "type": "uint256"
        },
        {
          "internalType": "bytes",
          "name": "others",
          "type": "bytes"
        }
      ],
      "name": "updateSpec",
      "outputs": [],
      "stateMutability": "nonpayable",
      "type": "function"
    },
    {
      "inputs": [
        {
          "internalType": "uint256",
          "name": "id",
          "type": "uint256"
        }
      ],
      "name": "totalSupply",
      "outputs": [
        {
          "internalType": "uint256",
          "name": "",
          "type": "uint256"
        }
      ],
      "stateMutability": "view",
      "type": "function",
      "constant": true
    },
    {
      "inputs": [
        {
          "internalType": "uint256",
          "name": "id",
          "type": "uint256"
        },
        {
          "internalType": "uint256",
          "name": "amount",
          "type": "uint256"
        }
      ],
      "name": "increaseTotalSupply",
      "outputs": [],
      "stateMutability": "nonpayable",
      "type": "function"
    },
    {
      "inputs": [
        {
          "internalType": "uint256",
          "name": "id",
          "type": "uint256"
        }
      ],
      "name": "maxSupply",
      "outputs": [
        {
          "internalType": "uint256",
          "name": "",
          "type": "uint256"
        }
      ],
      "stateMutability": "view",
      "type": "function",
      "constant": true
    },
    {
      "inputs": [
        {
          "internalType": "address",
          "name": "account",
          "type": "address"
        },
        {
          "internalType": "uint256",
          "name": "id",
          "type": "uint256"
        }
      ],
      "name": "isOwned",
      "outputs": [
        {
          "internalType": "bool",
          "name": "",
          "type": "bool"
        }
      ],
      "stateMutability": "view",
      "type": "function",
      "constant": true
    },
    {
      "inputs": [
        {
          "internalType": "uint256",
          "name": "_maxSupply",
          "type": "uint256"
        },
        {
          "internalType": "uint256",
          "name": "_initialSupply",
          "type": "uint256"
        },
        {
          "internalType": "string",
          "name": "uri",
          "type": "string"
        },
        {
          "internalType": "string",
          "name": "model",
          "type": "string"
        },
        {
          "internalType": "string",
          "name": "color",
          "type": "string"
        },
        {
          "internalType": "uint256",
          "name": "price",
          "type": "uint256"
        },
        {
          "internalType": "bytes",
          "name": "data",
          "type": "bytes"
        }
      ],
      "name": "createDevice",
      "outputs": [
        {
          "internalType": "uint256",
          "name": "tokenId",
          "type": "uint256"
        }
      ],
      "stateMutability": "nonpayable",
      "type": "function"
    },
    {
      "inputs": [
        {
          "internalType": "address",
          "name": "account",
          "type": "address"
        },
        {
          "internalType": "uint256",
          "name": "id",
          "type": "uint256"
        },
        {
          "internalType": "uint256",
          "name": "amount",
          "type": "uint256"
        },
        {
          "internalType": "bytes",
          "name": "data",
          "type": "bytes"
        }
      ],
      "name": "mint",
      "outputs": [],
      "stateMutability": "nonpayable",
      "type": "function"
    }
  ],
  "bytecode": "0x60806040526001600b553480156200001657600080fd5b50604051806020016040528060008152506200003f6301ffc9a760e01b620001ca60201b60201c565b6200005081620002a260201b60201c565b6200006863d9b67a2660e01b620001ca60201b60201c565b62000080630e89341c60e01b620001ca60201b60201c565b50600062000093620002be60201b60201c565b905080600460006101000a81548173ffffffffffffffffffffffffffffffffffffffff021916908373ffffffffffffffffffffffffffffffffffffffff1602179055508073ffffffffffffffffffffffffffffffffffffffff16600073ffffffffffffffffffffffffffffffffffffffff167f8be0079c531659141344cd1fd0a4f28419497f9722a3daafe3b4186f6b6457e060405160405180910390a350620001c36040518060400160405280600d81526020017f6950686f6e6547656e65736973000000000000000000000000000000000000008152506040518060400160405280600381526020017f7265640000000000000000000000000000000000000000000000000000000000815250633b9aca0060405180602001604052806000815250620002c660201b60201c565b5062000641565b63ffffffff60e01b817bffffffffffffffffffffffffffffffffffffffffffffffffffffffff1916141562000236576040517f08c379a00000000000000000000000000000000000000000000000000000000081526004016200022d90620005ec565b60405180910390fd5b6001600080837bffffffffffffffffffffffffffffffffffffffffffffffffffffffff19167bffffffffffffffffffffffffffffffffffffffffffffffffffffffff1916815260200190815260200160002060006101000a81548160ff02191690831515021790555050565b8060039080519060200190620002ba92919062000432565b5050565b600033905090565b6000620002d8620002be60201b60201c565b73ffffffffffffffffffffffffffffffffffffffff16600460009054906101000a900473ffffffffffffffffffffffffffffffffffffffff1673ffffffffffffffffffffffffffffffffffffffff16146200036a576040517f08c379a000000000000000000000000000000000000000000000000000000000815260040162000361906200060e565b60405180910390fd5b600760405180608001604052808781526020018681526020018581526020018481525090806001815401808255809150506001900390600052602060002090600402016000909190919091506000820151816000019080519060200190620003d492919062000432565b506020820151816001019080519060200190620003f392919062000432565b506040820151816002015560608201518160030190805190602001906200041c929190620004b9565b5050506001600780549050039050949350505050565b828054600181600116156101000203166002900490600052602060002090601f016020900481019282601f106200047557805160ff1916838001178555620004a6565b82800160010185558215620004a6579182015b82811115620004a557825182559160200191906001019062000488565b5b509050620004b5919062000540565b5090565b828054600181600116156101000203166002900490600052602060002090601f016020900481019282601f10620004fc57805160ff19168380011785556200052d565b828001600101855582156200052d579182015b828111156200052c5782518255916020019190600101906200050f565b5b5090506200053c919062000540565b5090565b6200056591905b808211156200056157600081600090555060010162000547565b5090565b90565b600062000577601c8362000630565b91507f4552433136353a20696e76616c696420696e74657266616365206964000000006000830152602082019050919050565b6000620005b960208362000630565b91507f4f776e61626c653a2063616c6c6572206973206e6f7420746865206f776e65726000830152602082019050919050565b60006020820190508181036000830152620006078162000568565b9050919050565b600060208201905081810360008301526200062981620005aa565b9050919050565b600082825260208201905092915050565b614fbb80620006516000396000f3fe608060405234801561001057600080fd5b50600436106101c65760003560e01c806356189236116100f95780639af3b98b11610097578063bd85b03911610071578063bd85b03914610564578063e985e9c514610594578063f242432a146105c4578063f2fde38b146105e0576101c7565b80639af3b98b146104fc5780639caf9a1314610518578063a22cb46514610548576101c7565b8063715018a6116100d3578063715018a614610488578063731133e914610492578063869f7594146104ae5780638da5cb5b146104de576101c7565b806356189236146104305780635ab309591461044e5780636e190b4e1461046a576101c7565b80632eb2c2d61161016657806334159b271161014057806334159b271461037057806337d9d58d146103a05780634e1273f4146103d0578063557a6c7f14610400576101c7565b80632eb2c2d61461031c57806331157c1514610338578063339b377614610354576101c7565b80630e89341c116101a25780630e89341c1461025c5780631f6cae1b1461028c5780632693ebf2146102bc5780632db629c2146102ec576101c7565b80624221f0146101cc578062fdd58e146101fc57806301ffc9a71461022c576101c7565b5b600080fd5b6101e660048036038101906101e19190613b1e565b6105fc565b6040516101f39190614c48565b60405180910390f35b61021660048036038101906102119190613968565b610614565b6040516102239190614c48565b60405180910390f35b61024660048036038101906102419190613a8b565b6106de565b6040516102539190614965565b60405180910390f35b61027660048036038101906102719190613b1e565b610745565b60405161028391906149a4565b60405180910390f35b6102a660048036038101906102a19190613c4f565b6107e9565b6040516102b39190614c48565b60405180910390f35b6102d660048036038101906102d19190613b1e565b610ae4565b6040516102e39190614c48565b60405180910390f35b61030660048036038101906103019190613b1e565b610afc565b6040516103139190614c26565b60405180910390f35b610336600480360381019061033191906137de565b610d68565b005b610352600480360381019061034d9190613779565b61112c565b005b61036e60048036038101906103699190613c13565b61128e565b005b61038a60048036038101906103859190613779565b611362565b6040516103979190614965565b60405180910390f35b6103ba60048036038101906103b59190613968565b611427565b6040516103c79190614965565b60405180910390f35b6103ea60048036038101906103e59190613a1f565b61150a565b6040516103f7919061490c565b60405180910390f35b61041a60048036038101906104159190613add565b6116d3565b6040516104279190614c26565b60405180910390f35b61043861192b565b6040516104459190614c48565b60405180910390f35b61046860048036038101906104639190613b47565b611935565b005b610472611b42565b60405161047f91906148ea565b60405180910390f35b610490611d91565b005b6104ac60048036038101906104a791906139a4565b611ee9565b005b6104c860048036038101906104c39190613b1e565b612048565b6040516104d59190614c48565b60405180910390f35b6104e6612065565b6040516104f3919061480d565b60405180910390f35b61051660048036038101906105119190613779565b61208f565b005b610532600480360381019061052d9190613779565b6121f1565b60405161053f919061490c565b60405180910390f35b610562600480360381019061055d919061392c565b612288565b005b61057e60048036038101906105799190613b1e565b612409565b60405161058b9190614c48565b60405180910390f35b6105ae60048036038101906105a991906137a2565b612426565b6040516105bb9190614965565b60405180910390f35b6105de60048036038101906105d9919061389d565b6124ba565b005b6105fa60048036038101906105f59190613779565b6127fd565b005b60066020528060005260406000206000915090505481565b60008073ffffffffffffffffffffffffffffffffffffffff168373ffffffffffffffffffffffffffffffffffffffff161415610685576040517f08c379a000000000000000000000000000000000000000000000000000000000815260040161067c90614a06565b60405180910390fd5b6001600083815260200190815260200160002060008473ffffffffffffffffffffffffffffffffffffffff1673ffffffffffffffffffffffffffffffffffffffff16815260200190815260200160002054905092915050565b6000806000837bffffffffffffffffffffffffffffffffffffffffffffffffffffffff19167bffffffffffffffffffffffffffffffffffffffffffffffffffffffff1916815260200190815260200160002060009054906101000a900460ff169050919050565b606060038054600181600116156101000203166002900480601f0160208091040260200160405190810160405280929190818152602001828054600181600116156101000203166002900480156107dd5780601f106107b2576101008083540402835291602001916107dd565b820191906000526020600020905b8154815290600101906020018083116107c057829003601f168201915b50505050509050919050565b60006107f36129c4565b73ffffffffffffffffffffffffffffffffffffffff16600460009054906101000a900473ffffffffffffffffffffffffffffffffffffffff1673ffffffffffffffffffffffffffffffffffffffff1614610882576040517f08c379a000000000000000000000000000000000000000000000000000000000815260040161087990614b46565b60405180910390fd5b8b8b11156108c5576040517f08c379a00000000000000000000000000000000000000000000000000000000081526004016108bc90614b26565b60405180910390fd5b6000600b54905060008b8b9050111561091357807f6bb7ff708619ba0610cba295a58592e0451dee2622938c8755667688daf3529b8c8c60405161090a929190614980565b60405180910390a25b60008c146109d25761096b33828e87878080601f016020809104026020016040519081016040528093929190818152602001838380828437600081840152601f19601f820116905080830192505050505050506129cc565b600a60003373ffffffffffffffffffffffffffffffffffffffff1673ffffffffffffffffffffffffffffffffffffffff1681526020019081526020016000208190806001815401808255809150506001900390600052602060002001600090919091909150555b8b60056000838152602001908152602001600020819055508c6006600083815260200190815260200160002081905550610aa589898080601f016020809104026020016040519081016040528093929190818152602001838380828437600081840152601f19601f8201169050808301925050505050505088888080601f016020809104026020016040519081016040528093929190818152602001838380828437600081840152601f19601f820116905080830192505050505050508760405180602001604052806000815250612bb3565b60088a8a604051610ab79291906147dd565b908152602001604051809103902081905550610ad1612d0e565b809150509b9a5050505050505050505050565b60056020528060005260406000206000915090505481565b610b04613381565b6007805490508210610b4b576040517f08c379a0000000000000000000000000000000000000000000000000000000008152600401610b4290614b66565b60405180910390fd5b60078281548110610b5857fe5b9060005260206000209060040201604051806080016040529081600082018054600181600116156101000203166002900480601f016020809104026020016040519081016040528092919081815260200182805460018160011615610100020316600290048015610c0a5780601f10610bdf57610100808354040283529160200191610c0a565b820191906000526020600020905b815481529060010190602001808311610bed57829003601f168201915b50505050508152602001600182018054600181600116156101000203166002900480601f016020809104026020016040519081016040528092919081815260200182805460018160011615610100020316600290048015610cac5780601f10610c8157610100808354040283529160200191610cac565b820191906000526020600020905b815481529060010190602001808311610c8f57829003601f168201915b5050505050815260200160028201548152602001600382018054600181600116156101000203166002900480601f016020809104026020016040519081016040528092919081815260200182805460018160011615610100020316600290048015610d585780601f10610d2d57610100808354040283529160200191610d58565b820191906000526020600020905b815481529060010190602001808311610d3b57829003601f168201915b5050505050815250509050919050565b8151835114610dac576040517f08c379a0000000000000000000000000000000000000000000000000000000008152600401610da390614be6565b60405180910390fd5b600073ffffffffffffffffffffffffffffffffffffffff168473ffffffffffffffffffffffffffffffffffffffff161415610e1c576040517f08c379a0000000000000000000000000000000000000000000000000000000008152600401610e1390614aa6565b60405180910390fd5b610e246129c4565b73ffffffffffffffffffffffffffffffffffffffff168573ffffffffffffffffffffffffffffffffffffffff161480610e6a5750610e6985610e646129c4565b612426565b5b610ea9576040517f08c379a0000000000000000000000000000000000000000000000000000000008152600401610ea090614ac6565b60405180910390fd5b6000610eb36129c4565b9050610ec3818787878787612d2c565b60008090505b8451811015611097576000858281518110610ee057fe5b602002602001015190506000858381518110610ef857fe5b60200260200101519050610f7f816040518060600160405280602a8152602001614f5c602a91396001600086815260200190815260200160002060008d73ffffffffffffffffffffffffffffffffffffffff1673ffffffffffffffffffffffffffffffffffffffff16815260200190815260200160002054612d349092919063ffffffff16565b6001600084815260200190815260200160002060008b73ffffffffffffffffffffffffffffffffffffffff1673ffffffffffffffffffffffffffffffffffffffff16815260200190815260200160002081905550611036816001600085815260200190815260200160002060008b73ffffffffffffffffffffffffffffffffffffffff1673ffffffffffffffffffffffffffffffffffffffff16815260200190815260200160002054612d8f90919063ffffffff16565b6001600084815260200190815260200160002060008a73ffffffffffffffffffffffffffffffffffffffff1673ffffffffffffffffffffffffffffffffffffffff168152602001908152602001600020819055505050806001019050610ec9565b508473ffffffffffffffffffffffffffffffffffffffff168673ffffffffffffffffffffffffffffffffffffffff168273ffffffffffffffffffffffffffffffffffffffff167f4a39dc06d4c0dbc64b70af90fd698a233a518aa5d07e595d983b8c0526c8f7fb878760405161110e92919061492e565b60405180910390a4611124818787878787612de4565b505050505050565b6111346129c4565b73ffffffffffffffffffffffffffffffffffffffff16600460009054906101000a900473ffffffffffffffffffffffffffffffffffffffff1673ffffffffffffffffffffffffffffffffffffffff16146111c3576040517f08c379a00000000000000000000000000000000000000000000000000000000081526004016111ba90614b46565b60405180910390fd5b600073ffffffffffffffffffffffffffffffffffffffff168173ffffffffffffffffffffffffffffffffffffffff161415611233576040517f08c379a000000000000000000000000000000000000000000000000000000000815260040161122a90614ae6565b60405180910390fd5b6001600960008373ffffffffffffffffffffffffffffffffffffffff1673ffffffffffffffffffffffffffffffffffffffff16815260200190815260200160002060006101000a81548160ff02191690831515021790555050565b60011515600960003373ffffffffffffffffffffffffffffffffffffffff1673ffffffffffffffffffffffffffffffffffffffff16815260200190815260200160002060009054906101000a900460ff16151514611321576040517f08c379a000000000000000000000000000000000000000000000000000000000815260040161131890614b86565b60405180910390fd5b611347816005600085815260200190815260200160002054612d8f90919063ffffffff16565b60056000848152602001908152602001600020819055505050565b60008073ffffffffffffffffffffffffffffffffffffffff168273ffffffffffffffffffffffffffffffffffffffff1614156113d3576040517f08c379a00000000000000000000000000000000000000000000000000000000081526004016113ca90614ae6565b60405180910390fd5b600960008373ffffffffffffffffffffffffffffffffffffffff1673ffffffffffffffffffffffffffffffffffffffff16815260200190815260200160002060009054906101000a900460ff169050919050565b60006060600a60008573ffffffffffffffffffffffffffffffffffffffff1673ffffffffffffffffffffffffffffffffffffffff1681526020019081526020016000208054806020026020016040519081016040528092919081815260200182805480156114b457602002820191906000526020600020905b8154815260200190600101908083116114a0575b5050505050905060008090505b81518110156114fd57838282815181106114d757fe5b602002602001015114156114f057600192505050611504565b80806001019150506114c1565b5060009150505b92915050565b60608151835114611550576040517f08c379a000000000000000000000000000000000000000000000000000000000815260040161154790614bc6565b60405180910390fd5b6060835167ffffffffffffffff8111801561156a57600080fd5b506040519080825280602002602001820160405280156115995781602001602082028036833780820191505090505b50905060008090505b84518110156116c857600073ffffffffffffffffffffffffffffffffffffffff168582815181106115cf57fe5b602002602001015173ffffffffffffffffffffffffffffffffffffffff16141561162e576040517f08c379a000000000000000000000000000000000000000000000000000000000815260040161162590614a26565b60405180910390fd5b6001600085838151811061163e57fe5b60200260200101518152602001908152602001600020600086838151811061166257fe5b602002602001015173ffffffffffffffffffffffffffffffffffffffff1673ffffffffffffffffffffffffffffffffffffffff168152602001908152602001600020548282815181106116b157fe5b6020026020010181815250508060010190506115a2565b508091505092915050565b6116db613381565b60006008836040516116ed91906147f6565b908152602001604051809103902054905060008114611924576007818154811061171357fe5b9060005260206000209060040201604051806080016040529081600082018054600181600116156101000203166002900480601f0160208091040260200160405190810160405280929190818152602001828054600181600116156101000203166002900480156117c55780601f1061179a576101008083540402835291602001916117c5565b820191906000526020600020905b8154815290600101906020018083116117a857829003601f168201915b50505050508152602001600182018054600181600116156101000203166002900480601f0160208091040260200160405190810160405280929190818152602001828054600181600116156101000203166002900480156118675780601f1061183c57610100808354040283529160200191611867565b820191906000526020600020905b81548152906001019060200180831161184a57829003601f168201915b5050505050815260200160028201548152602001600382018054600181600116156101000203166002900480601f0160208091040260200160405190810160405280929190818152602001828054600181600116156101000203166002900480156119135780601f106118e857610100808354040283529160200191611913565b820191906000526020600020905b8154815290600101906020018083116118f657829003601f168201915b505050505081525050915050611926565b505b919050565b6000600b54905090565b61193d6129c4565b73ffffffffffffffffffffffffffffffffffffffff16600460009054906101000a900473ffffffffffffffffffffffffffffffffffffffff1673ffffffffffffffffffffffffffffffffffffffff16146119cc576040517f08c379a00000000000000000000000000000000000000000000000000000000081526004016119c390614b46565b60405180910390fd5b604051806080016040528088888080601f016020809104026020016040519081016040528093929190818152602001838380828437600081840152601f19601f82011690508083019250505050505050815260200186868080601f016020809104026020016040519081016040528093929190818152602001838380828437600081840152601f19601f82011690508083019250505050505050815260200184815260200183838080601f016020809104026020016040519081016040528093929190818152602001838380828437600081840152601f19601f8201169050808301925050505050505081525060078981548110611ac657fe5b90600052602060002090600402016000820151816000019080519060200190611af09291906133a9565b506020820151816001019080519060200190611b0d9291906133a9565b50604082015181600201556060820151816003019080519060200190611b34929190613429565b509050505050505050505050565b60606007805480602002602001604051908101604052809291908181526020016000905b82821015611d885783829060005260206000209060040201604051806080016040529081600082018054600181600116156101000203166002900480601f016020809104026020016040519081016040528092919081815260200182805460018160011615610100020316600290048015611c225780601f10611bf757610100808354040283529160200191611c22565b820191906000526020600020905b815481529060010190602001808311611c0557829003601f168201915b50505050508152602001600182018054600181600116156101000203166002900480601f016020809104026020016040519081016040528092919081815260200182805460018160011615610100020316600290048015611cc45780601f10611c9957610100808354040283529160200191611cc4565b820191906000526020600020905b815481529060010190602001808311611ca757829003601f168201915b5050505050815260200160028201548152602001600382018054600181600116156101000203166002900480601f016020809104026020016040519081016040528092919081815260200182805460018160011615610100020316600290048015611d705780601f10611d4557610100808354040283529160200191611d70565b820191906000526020600020905b815481529060010190602001808311611d5357829003601f168201915b50505050508152505081526020019060010190611b66565b50505050905090565b611d996129c4565b73ffffffffffffffffffffffffffffffffffffffff16600460009054906101000a900473ffffffffffffffffffffffffffffffffffffffff1673ffffffffffffffffffffffffffffffffffffffff1614611e28576040517f08c379a0000000000000000000000000000000000000000000000000000000008152600401611e1f90614b46565b60405180910390fd5b600073ffffffffffffffffffffffffffffffffffffffff16600460009054906101000a900473ffffffffffffffffffffffffffffffffffffffff1673ffffffffffffffffffffffffffffffffffffffff167f8be0079c531659141344cd1fd0a4f28419497f9722a3daafe3b4186f6b6457e060405160405180910390a36000600460006101000a81548173ffffffffffffffffffffffffffffffffffffffff021916908373ffffffffffffffffffffffffffffffffffffffff160217905550565b60011515600960003373ffffffffffffffffffffffffffffffffffffffff1673ffffffffffffffffffffffffffffffffffffffff16815260200190815260200160002060009054906101000a900460ff16151514611f7c576040517f08c379a0000000000000000000000000000000000000000000000000000000008152600401611f7390614b86565b60405180910390fd5b600b54831115611fc1576040517f08c379a0000000000000000000000000000000000000000000000000000000008152600401611fb890614b06565b60405180910390fd5b611fcd848484846129cc565b611fd78484611427565b61204257600a60008573ffffffffffffffffffffffffffffffffffffffff1673ffffffffffffffffffffffffffffffffffffffff1681526020019081526020016000208390806001815401808255809150506001900390600052602060002001600090919091909150555b50505050565b600060066000838152602001908152602001600020549050919050565b6000600460009054906101000a900473ffffffffffffffffffffffffffffffffffffffff16905090565b6120976129c4565b73ffffffffffffffffffffffffffffffffffffffff16600460009054906101000a900473ffffffffffffffffffffffffffffffffffffffff1673ffffffffffffffffffffffffffffffffffffffff1614612126576040517f08c379a000000000000000000000000000000000000000000000000000000000815260040161211d90614b46565b60405180910390fd5b600073ffffffffffffffffffffffffffffffffffffffff168173ffffffffffffffffffffffffffffffffffffffff161415612196576040517f08c379a000000000000000000000000000000000000000000000000000000000815260040161218d90614ae6565b60405180910390fd5b6000600960008373ffffffffffffffffffffffffffffffffffffffff1673ffffffffffffffffffffffffffffffffffffffff16815260200190815260200160002060006101000a81548160ff02191690831515021790555050565b6060600a60008373ffffffffffffffffffffffffffffffffffffffff1673ffffffffffffffffffffffffffffffffffffffff16815260200190815260200160002080548060200260200160405190810160405280929190818152602001828054801561227c57602002820191906000526020600020905b815481526020019060010190808311612268575b50505050509050919050565b8173ffffffffffffffffffffffffffffffffffffffff166122a76129c4565b73ffffffffffffffffffffffffffffffffffffffff1614156122fe576040517f08c379a00000000000000000000000000000000000000000000000000000000081526004016122f590614ba6565b60405180910390fd5b806002600061230b6129c4565b73ffffffffffffffffffffffffffffffffffffffff1673ffffffffffffffffffffffffffffffffffffffff16815260200190815260200160002060008473ffffffffffffffffffffffffffffffffffffffff1673ffffffffffffffffffffffffffffffffffffffff16815260200190815260200160002060006101000a81548160ff0219169083151502179055508173ffffffffffffffffffffffffffffffffffffffff166123b86129c4565b73ffffffffffffffffffffffffffffffffffffffff167f17307eab39ab6107e8899845ad3d59bd9653f200f220920489ca2b5937696c31836040516123fd9190614965565b60405180910390a35050565b600060056000838152602001908152602001600020549050919050565b6000600260008473ffffffffffffffffffffffffffffffffffffffff1673ffffffffffffffffffffffffffffffffffffffff16815260200190815260200160002060008373ffffffffffffffffffffffffffffffffffffffff1673ffffffffffffffffffffffffffffffffffffffff16815260200190815260200160002060009054906101000a900460ff16905092915050565b600073ffffffffffffffffffffffffffffffffffffffff168473ffffffffffffffffffffffffffffffffffffffff16141561252a576040517f08c379a000000000000000000000000000000000000000000000000000000000815260040161252190614aa6565b60405180910390fd5b6125326129c4565b73ffffffffffffffffffffffffffffffffffffffff168573ffffffffffffffffffffffffffffffffffffffff1614806125785750612577856125726129c4565b612426565b5b6125b7576040517f08c379a00000000000000000000000000000000000000000000000000000000081526004016125ae90614a86565b60405180910390fd5b60006125c16129c4565b90506125e18187876125d288613071565b6125db88613071565b87612d2c565b61265e836040518060600160405280602a8152602001614f5c602a91396001600088815260200190815260200160002060008a73ffffffffffffffffffffffffffffffffffffffff1673ffffffffffffffffffffffffffffffffffffffff16815260200190815260200160002054612d349092919063ffffffff16565b6001600086815260200190815260200160002060008873ffffffffffffffffffffffffffffffffffffffff1673ffffffffffffffffffffffffffffffffffffffff16815260200190815260200160002081905550612715836001600087815260200190815260200160002060008873ffffffffffffffffffffffffffffffffffffffff1673ffffffffffffffffffffffffffffffffffffffff16815260200190815260200160002054612d8f90919063ffffffff16565b6001600086815260200190815260200160002060008773ffffffffffffffffffffffffffffffffffffffff1673ffffffffffffffffffffffffffffffffffffffff168152602001908152602001600020819055508473ffffffffffffffffffffffffffffffffffffffff168673ffffffffffffffffffffffffffffffffffffffff168273ffffffffffffffffffffffffffffffffffffffff167fc3d58168c5ae7397731d063d5bbf3d657854427343f4c083240f7aacaa2d0f6287876040516127df929190614c63565b60405180910390a46127f58187878787876130e1565b505050505050565b6128056129c4565b73ffffffffffffffffffffffffffffffffffffffff16600460009054906101000a900473ffffffffffffffffffffffffffffffffffffffff1673ffffffffffffffffffffffffffffffffffffffff1614612894576040517f08c379a000000000000000000000000000000000000000000000000000000000815260040161288b90614b46565b60405180910390fd5b600073ffffffffffffffffffffffffffffffffffffffff168173ffffffffffffffffffffffffffffffffffffffff161415612904576040517f08c379a00000000000000000000000000000000000000000000000000000000081526004016128fb90614a46565b60405180910390fd5b8073ffffffffffffffffffffffffffffffffffffffff16600460009054906101000a900473ffffffffffffffffffffffffffffffffffffffff1673ffffffffffffffffffffffffffffffffffffffff167f8be0079c531659141344cd1fd0a4f28419497f9722a3daafe3b4186f6b6457e060405160405180910390a380600460006101000a81548173ffffffffffffffffffffffffffffffffffffffff021916908373ffffffffffffffffffffffffffffffffffffffff16021790555050565b600033905090565b600073ffffffffffffffffffffffffffffffffffffffff168473ffffffffffffffffffffffffffffffffffffffff161415612a3c576040517f08c379a0000000000000000000000000000000000000000000000000000000008152600401612a3390614c06565b60405180910390fd5b6000612a466129c4565b9050612a6781600087612a5888613071565b612a6188613071565b87612d2c565b612aca836001600087815260200190815260200160002060008873ffffffffffffffffffffffffffffffffffffffff1673ffffffffffffffffffffffffffffffffffffffff16815260200190815260200160002054612d8f90919063ffffffff16565b6001600086815260200190815260200160002060008773ffffffffffffffffffffffffffffffffffffffff1673ffffffffffffffffffffffffffffffffffffffff168152602001908152602001600020819055508473ffffffffffffffffffffffffffffffffffffffff16600073ffffffffffffffffffffffffffffffffffffffff168273ffffffffffffffffffffffffffffffffffffffff167fc3d58168c5ae7397731d063d5bbf3d657854427343f4c083240f7aacaa2d0f628787604051612b95929190614c63565b60405180910390a4612bac816000878787876130e1565b5050505050565b6000612bbd6129c4565b73ffffffffffffffffffffffffffffffffffffffff16600460009054906101000a900473ffffffffffffffffffffffffffffffffffffffff1673ffffffffffffffffffffffffffffffffffffffff1614612c4c576040517f08c379a0000000000000000000000000000000000000000000000000000000008152600401612c4390614b46565b60405180910390fd5b600760405180608001604052808781526020018681526020018581526020018481525090806001815401808255809150506001900390600052602060002090600402016000909190919091506000820151816000019080519060200190612cb49291906133a9565b506020820151816001019080519060200190612cd19291906133a9565b50604082015181600201556060820151816003019080519060200190612cf8929190613429565b5050506001600780549050039050949350505050565b612d246001600b54612d8f90919063ffffffff16565b600b81905550565b505050505050565b6000838311158290612d7c576040517f08c379a0000000000000000000000000000000000000000000000000000000008152600401612d7391906149a4565b60405180910390fd5b5060008385039050809150509392505050565b600080828401905083811015612dda576040517f08c379a0000000000000000000000000000000000000000000000000000000008152600401612dd190614a66565b60405180910390fd5b8091505092915050565b612e038473ffffffffffffffffffffffffffffffffffffffff1661336e565b15613069578373ffffffffffffffffffffffffffffffffffffffff1663bc197c8187878686866040518663ffffffff1660e01b8152600401612e49959493929190614828565b602060405180830381600087803b158015612e6357600080fd5b505af1925050508015612e9457506040513d601f19601f82011682018060405250810190612e919190613ab4565b60015b612fe0576000604051905060008152600115612f5d5760443d1015612ebc5760009050612f5d565b60046000803e60005160e01c6308c379a08114612edd576000915050612f5d565b60043d036004833e81513d602482011167ffffffffffffffff82111715612f0957600092505050612f5d565b808301805167ffffffffffffffff811115612f2b576000945050505050612f5d565b8060208301013d8601811115612f4957600095505050505050612f5d565b601f19601f82011660405282955050505050505b80612f685750612fa5565b806040517f08c379a0000000000000000000000000000000000000000000000000000000008152600401612f9c91906149a4565b60405180910390fd5b6040517f08c379a0000000000000000000000000000000000000000000000000000000008152600401612fd7906149c6565b60405180910390fd5b63bc197c8160e01b7bffffffffffffffffffffffffffffffffffffffffffffffffffffffff1916817bffffffffffffffffffffffffffffffffffffffffffffffffffffffff191614613067576040517f08c379a000000000000000000000000000000000000000000000000000000000815260040161305e906149e6565b60405180910390fd5b505b505050505050565b606080600167ffffffffffffffff8111801561308c57600080fd5b506040519080825280602002602001820160405280156130bb5781602001602082028036833780820191505090505b50905082816000815181106130cc57fe5b60200260200101818152505080915050919050565b6131008473ffffffffffffffffffffffffffffffffffffffff1661336e565b15613366578373ffffffffffffffffffffffffffffffffffffffff1663f23a6e6187878686866040518663ffffffff1660e01b8152600401613146959493929190614890565b602060405180830381600087803b15801561316057600080fd5b505af192505050801561319157506040513d601f19601f8201168201806040525081019061318e9190613ab4565b60015b6132dd57600060405190506000815260011561325a5760443d10156131b9576000905061325a565b60046000803e60005160e01c6308c379a081146131da57600091505061325a565b60043d036004833e81513d602482011167ffffffffffffffff821117156132065760009250505061325a565b808301805167ffffffffffffffff81111561322857600094505050505061325a565b8060208301013d86018111156132465760009550505050505061325a565b601f19601f82011660405282955050505050505b8061326557506132a2565b806040517f08c379a000000000000000000000000000000000000000000000000000000000815260040161329991906149a4565b60405180910390fd5b6040517f08c379a00000000000000000000000000000000000000000000000000000000081526004016132d4906149c6565b60405180910390fd5b63f23a6e6160e01b7bffffffffffffffffffffffffffffffffffffffffffffffffffffffff1916817bffffffffffffffffffffffffffffffffffffffffffffffffffffffff191614613364576040517f08c379a000000000000000000000000000000000000000000000000000000000815260040161335b906149e6565b60405180910390fd5b505b505050505050565b600080823b905060008111915050919050565b6040518060800160405280606081526020016060815260200160008152602001606081525090565b828054600181600116156101000203166002900490600052602060002090601f016020900481019282601f106133ea57805160ff1916838001178555613418565b82800160010185558215613418579182015b828111156134175782518255916020019190600101906133fc565b5b50905061342591906134a9565b5090565b828054600181600116156101000203166002900490600052602060002090601f016020900481019282601f1061346a57805160ff1916838001178555613498565b82800160010185558215613498579182015b8281111561349757825182559160200191906001019061347c565b5b5090506134a591906134a9565b5090565b6134cb91905b808211156134c75760008160009055506001016134af565b5090565b90565b6000813590506134dd81614eff565b92915050565b600082601f8301126134f457600080fd5b813561350761350282614cb9565b614c8c565b9150818183526020840193506020810190508385602084028201111561352c57600080fd5b60005b8381101561355c578161354288826134ce565b84526020840193506020830192505060018101905061352f565b5050505092915050565b600082601f83011261357757600080fd5b813561358a61358582614ce1565b614c8c565b915081818352602084019350602081019050838560208402820111156135af57600080fd5b60005b838110156135df57816135c58882613764565b8452602084019350602083019250506001810190506135b2565b5050505092915050565b6000813590506135f881614f16565b92915050565b60008135905061360d81614f2d565b92915050565b60008151905061362281614f2d565b92915050565b60008083601f84011261363a57600080fd5b8235905067ffffffffffffffff81111561365357600080fd5b60208301915083600182028301111561366b57600080fd5b9250929050565b600082601f83011261368357600080fd5b813561369661369182614d09565b614c8c565b915080825260208301602083018583830111156136b257600080fd5b6136bd838284614eac565b50505092915050565b60008083601f8401126136d857600080fd5b8235905067ffffffffffffffff8111156136f157600080fd5b60208301915083600182028301111561370957600080fd5b9250929050565b600082601f83011261372157600080fd5b813561373461372f82614d35565b614c8c565b9150808252602083016020830185838301111561375057600080fd5b61375b838284614eac565b50505092915050565b60008135905061377381614f44565b92915050565b60006020828403121561378b57600080fd5b6000613799848285016134ce565b91505092915050565b600080604083850312156137b557600080fd5b60006137c3858286016134ce565b92505060206137d4858286016134ce565b9150509250929050565b600080600080600060a086880312156137f657600080fd5b6000613804888289016134ce565b9550506020613815888289016134ce565b945050604086013567ffffffffffffffff81111561383257600080fd5b61383e88828901613566565b935050606086013567ffffffffffffffff81111561385b57600080fd5b61386788828901613566565b925050608086013567ffffffffffffffff81111561388457600080fd5b61389088828901613672565b9150509295509295909350565b600080600080600060a086880312156138b557600080fd5b60006138c3888289016134ce565b95505060206138d4888289016134ce565b94505060406138e588828901613764565b93505060606138f688828901613764565b925050608086013567ffffffffffffffff81111561391357600080fd5b61391f88828901613672565b9150509295509295909350565b6000806040838503121561393f57600080fd5b600061394d858286016134ce565b925050602061395e858286016135e9565b9150509250929050565b6000806040838503121561397b57600080fd5b6000613989858286016134ce565b925050602061399a85828601613764565b9150509250929050565b600080600080608085870312156139ba57600080fd5b60006139c8878288016134ce565b94505060206139d987828801613764565b93505060406139ea87828801613764565b925050606085013567ffffffffffffffff811115613a0757600080fd5b613a1387828801613672565b91505092959194509250565b60008060408385031215613a3257600080fd5b600083013567ffffffffffffffff811115613a4c57600080fd5b613a58858286016134e3565b925050602083013567ffffffffffffffff811115613a7557600080fd5b613a8185828601613566565b9150509250929050565b600060208284031215613a9d57600080fd5b6000613aab848285016135fe565b91505092915050565b600060208284031215613ac657600080fd5b6000613ad484828501613613565b91505092915050565b600060208284031215613aef57600080fd5b600082013567ffffffffffffffff811115613b0957600080fd5b613b1584828501613710565b91505092915050565b600060208284031215613b3057600080fd5b6000613b3e84828501613764565b91505092915050565b60008060008060008060008060a0898b031215613b6357600080fd5b6000613b718b828c01613764565b985050602089013567ffffffffffffffff811115613b8e57600080fd5b613b9a8b828c016136c6565b9750975050604089013567ffffffffffffffff811115613bb957600080fd5b613bc58b828c016136c6565b95509550506060613bd88b828c01613764565b935050608089013567ffffffffffffffff811115613bf557600080fd5b613c018b828c01613628565b92509250509295985092959890939650565b60008060408385031215613c2657600080fd5b6000613c3485828601613764565b9250506020613c4585828601613764565b9150509250929050565b600080600080600080600080600080600060e08c8e031215613c7057600080fd5b6000613c7e8e828f01613764565b9b50506020613c8f8e828f01613764565b9a505060408c013567ffffffffffffffff811115613cac57600080fd5b613cb88e828f016136c6565b995099505060608c013567ffffffffffffffff811115613cd757600080fd5b613ce38e828f016136c6565b975097505060808c013567ffffffffffffffff811115613d0257600080fd5b613d0e8e828f016136c6565b955095505060a0613d218e828f01613764565b93505060c08c013567ffffffffffffffff811115613d3e57600080fd5b613d4a8e828f01613628565b92509250509295989b509295989b9093969950565b6000613d6b83836146dd565b905092915050565b6000613d7f83836147bf565b60208301905092915050565b613d9481614e38565b82525050565b6000613da582614d81565b613daf8185614dc7565b935083602082028501613dc185614d61565b8060005b85811015613dfd5784840389528151613dde8582613d5f565b9450613de983614dad565b925060208a01995050600181019050613dc5565b50829750879550505050505092915050565b6000613e1a82614d8c565b613e248185614dd8565b9350613e2f83614d71565b8060005b83811015613e60578151613e478882613d73565b9750613e5283614dba565b925050600181019050613e33565b5085935050505092915050565b613e7681614e4a565b82525050565b6000613e8782614d97565b613e918185614de9565b9350613ea1818560208601614ebb565b613eaa81614eee565b840191505092915050565b6000613ec082614d97565b613eca8185614dfa565b9350613eda818560208601614ebb565b613ee381614eee565b840191505092915050565b6000613efa8385614e1c565b9350613f07838584614eac565b613f1083614eee565b840190509392505050565b6000613f278385614e2d565b9350613f34838584614eac565b82840190509392505050565b6000613f4b82614da2565b613f558185614e0b565b9350613f65818560208601614ebb565b613f6e81614eee565b840191505092915050565b6000613f8482614da2565b613f8e8185614e1c565b9350613f9e818560208601614ebb565b613fa781614eee565b840191505092915050565b6000613fbd82614da2565b613fc78185614e2d565b9350613fd7818560208601614ebb565b80840191505092915050565b6000613ff0603483614e1c565b91507f455243313135353a207472616e7366657220746f206e6f6e204552433131353560008301527f526563656976657220696d706c656d656e7465720000000000000000000000006020830152604082019050919050565b6000614056602883614e1c565b91507f455243313135353a204552433131353552656365697665722072656a6563746560008301527f6420746f6b656e730000000000000000000000000000000000000000000000006020830152604082019050919050565b60006140bc602b83614e1c565b91507f455243313135353a2062616c616e636520717565727920666f7220746865207a60008301527f65726f20616464726573730000000000000000000000000000000000000000006020830152604082019050919050565b6000614122603183614e1c565b91507f455243313135353a2062617463682062616c616e636520717565727920666f7260008301527f20746865207a65726f20616464726573730000000000000000000000000000006020830152604082019050919050565b6000614188602683614e1c565b91507f4f776e61626c653a206e6577206f776e657220697320746865207a65726f206160008301527f64647265737300000000000000000000000000000000000000000000000000006020830152604082019050919050565b60006141ee601b83614e1c565b91507f536166654d6174683a206164646974696f6e206f766572666c6f7700000000006000830152602082019050919050565b600061422e602983614e1c565b91507f455243313135353a2063616c6c6572206973206e6f74206f776e6572206e6f7260008301527f20617070726f76656400000000000000000000000000000000000000000000006020830152604082019050919050565b6000614294602583614e1c565b91507f455243313135353a207472616e7366657220746f20746865207a65726f20616460008301527f64726573730000000000000000000000000000000000000000000000000000006020830152604082019050919050565b60006142fa603283614e1c565b91507f455243313135353a207472616e736665722063616c6c6572206973206e6f742060008301527f6f776e6572206e6f7220617070726f76656400000000000000000000000000006020830152604082019050919050565b6000614360603283614e1c565b91507f73746f726520636f6e747261637420616464657373206d75737420626520646960008301527f66666572656e74206164647265737328302900000000000000000000000000006020830152604082019050919050565b60006143c6600c83614e1c565b91507f4964206e6f7420666f756e6400000000000000000000000000000000000000006000830152602082019050919050565b6000614406602883614e1c565b91507f496e697469616c20737570706c792063616e6e6f74206265206d6f7265206d6160008301527f7820737570706c790000000000000000000000000000000000000000000000006020830152604082019050919050565b600061446c602083614e1c565b91507f4f776e61626c653a2063616c6c6572206973206e6f7420746865206f776e65726000830152602082019050919050565b60006144ac601383614e1c565b91507f5370656320646f6573206e6f74206578697374000000000000000000000000006000830152602082019050919050565b60006144ec602383614e1c565b91507f4f6e6c7920617070726f7665642073746f72652063616e206d696e7420746f6b60008301527f656e2e00000000000000000000000000000000000000000000000000000000006020830152604082019050919050565b6000614552602983614e1c565b91507f455243313135353a2073657474696e6720617070726f76616c2073746174757360008301527f20666f722073656c6600000000000000000000000000000000000000000000006020830152604082019050919050565b60006145b8602983614e1c565b91507f455243313135353a206163636f756e747320616e6420696473206c656e67746860008301527f206d69736d6174636800000000000000000000000000000000000000000000006020830152604082019050919050565b600061461e602883614e1c565b91507f455243313135353a2069647320616e6420616d6f756e7473206c656e6774682060008301527f6d69736d617463680000000000000000000000000000000000000000000000006020830152604082019050919050565b6000614684602183614e1c565b91507f455243313135353a206d696e7420746f20746865207a65726f2061646472657360008301527f73000000000000000000000000000000000000000000000000000000000000006020830152604082019050919050565b600060808301600083015184820360008601526146fa8282613f40565b915050602083015184820360208601526147148282613f40565b915050604083015161472960408601826147bf565b50606083015184820360608601526147418282613e7c565b9150508091505092915050565b6000608083016000830151848203600086015261476b8282613f40565b915050602083015184820360208601526147858282613f40565b915050604083015161479a60408601826147bf565b50606083015184820360608601526147b28282613e7c565b9150508091505092915050565b6147c881614ea2565b82525050565b6147d781614ea2565b82525050565b60006147ea828486613f1b565b91508190509392505050565b60006148028284613fb2565b915081905092915050565b60006020820190506148226000830184613d8b565b92915050565b600060a08201905061483d6000830188613d8b565b61484a6020830187613d8b565b818103604083015261485c8186613e0f565b905081810360608301526148708185613e0f565b905081810360808301526148848184613eb5565b90509695505050505050565b600060a0820190506148a56000830188613d8b565b6148b26020830187613d8b565b6148bf60408301866147ce565b6148cc60608301856147ce565b81810360808301526148de8184613eb5565b90509695505050505050565b600060208201905081810360008301526149048184613d9a565b905092915050565b600060208201905081810360008301526149268184613e0f565b905092915050565b600060408201905081810360008301526149488185613e0f565b9050818103602083015261495c8184613e0f565b90509392505050565b600060208201905061497a6000830184613e6d565b92915050565b6000602082019050818103600083015261499b818486613eee565b90509392505050565b600060208201905081810360008301526149be8184613f79565b905092915050565b600060208201905081810360008301526149df81613fe3565b9050919050565b600060208201905081810360008301526149ff81614049565b9050919050565b60006020820190508181036000830152614a1f816140af565b9050919050565b60006020820190508181036000830152614a3f81614115565b9050919050565b60006020820190508181036000830152614a5f8161417b565b9050919050565b60006020820190508181036000830152614a7f816141e1565b9050919050565b60006020820190508181036000830152614a9f81614221565b9050919050565b60006020820190508181036000830152614abf81614287565b9050919050565b60006020820190508181036000830152614adf816142ed565b9050919050565b60006020820190508181036000830152614aff81614353565b9050919050565b60006020820190508181036000830152614b1f816143b9565b9050919050565b60006020820190508181036000830152614b3f816143f9565b9050919050565b60006020820190508181036000830152614b5f8161445f565b9050919050565b60006020820190508181036000830152614b7f8161449f565b9050919050565b60006020820190508181036000830152614b9f816144df565b9050919050565b60006020820190508181036000830152614bbf81614545565b9050919050565b60006020820190508181036000830152614bdf816145ab565b9050919050565b60006020820190508181036000830152614bff81614611565b9050919050565b60006020820190508181036000830152614c1f81614677565b9050919050565b60006020820190508181036000830152614c40818461474e565b905092915050565b6000602082019050614c5d60008301846147ce565b92915050565b6000604082019050614c7860008301856147ce565b614c8560208301846147ce565b9392505050565b6000604051905081810181811067ffffffffffffffff82111715614caf57600080fd5b8060405250919050565b600067ffffffffffffffff821115614cd057600080fd5b602082029050602081019050919050565b600067ffffffffffffffff821115614cf857600080fd5b602082029050602081019050919050565b600067ffffffffffffffff821115614d2057600080fd5b601f19601f8301169050602081019050919050565b600067ffffffffffffffff821115614d4c57600080fd5b601f19601f8301169050602081019050919050565b6000819050602082019050919050565b6000819050602082019050919050565b600081519050919050565b600081519050919050565b600081519050919050565b600081519050919050565b6000602082019050919050565b6000602082019050919050565b600082825260208201905092915050565b600082825260208201905092915050565b600082825260208201905092915050565b600082825260208201905092915050565b600082825260208201905092915050565b600082825260208201905092915050565b600081905092915050565b6000614e4382614e82565b9050919050565b60008115159050919050565b60007fffffffff0000000000000000000000000000000000000000000000000000000082169050919050565b600073ffffffffffffffffffffffffffffffffffffffff82169050919050565b6000819050919050565b82818337600083830152505050565b60005b83811015614ed9578082015181840152602081019050614ebe565b83811115614ee8576000848401525b50505050565b6000601f19601f8301169050919050565b614f0881614e38565b8114614f1357600080fd5b50565b614f1f81614e4a565b8114614f2a57600080fd5b50565b614f3681614e56565b8114614f4157600080fd5b50565b614f4d81614ea2565b8114614f5857600080fd5b5056fe455243313135353a20696e73756666696369656e742062616c616e636520666f72207472616e73666572a26469706673582212200c141bbb5f52344741bf471f92cf02f8da800098b26484bcc95d64f997662d8e64736f6c63430006060033",
  "immutableReferences": {},
  "source": "pragma solidity ^0.6.0;\n\nimport \"@openzeppelin/contracts/token/ERC1155/ERC1155.sol\";\nimport \"@openzeppelin/contracts/access/Ownable.sol\";\nimport \"@openzeppelin/contracts/math/SafeMath.sol\";\n\npragma experimental ABIEncoderV2;\n\ncontract Devices is ERC1155, Ownable {\n    using SafeMath for uint256;\n\n    mapping(uint256 => uint256) public tokenSupply;\n    mapping(uint256 => uint256) public tokenMaxSupply;\n\n    struct Spec {\n        string model;\n        string color;\n        uint256 price;\n        bytes others;\n    }\n\n    Spec[] private specs;\n\n    mapping(string => uint256) private modelToSpecId;\n\n    mapping(address => bool) private _approvedStores;\n\n    mapping(address => uint256[]) private ownedDevices;\n\n    uint256 private _currentTokenId = 1;\n\n    constructor() public ERC1155(\"\") {\n        createNewSpec(\"iPhoneGenesis\", \"red\", 1000000000, \"\");\n    }\n\n    function approveStore(address store) public onlyOwner {\n        require(\n            store != address(0),\n            \"store contract addess must be different address(0)\"\n        );\n        _approvedStores[store] = true;\n    }\n\n    function revokeStore(address store) public onlyOwner {\n        require(\n            store != address(0),\n            \"store contract addess must be different address(0)\"\n        );\n        _approvedStores[store] = false;\n    }\n\n    function isApprovedStore(address store) external view returns (bool) {\n        require(\n            store != address(0),\n            \"store contract addess must be different address(0)\"\n        );\n        return _approvedStores[store];\n    }\n\n    function getCurrentTokenId() external view returns (uint256) {\n        return _currentTokenId;\n    }\n\n    function getAllSpecs() public view returns (Spec[] memory) {\n        return specs;\n    }\n\n    function getOwnedDevices(address account)\n        public\n        view\n        returns (uint256[] memory)\n    {\n        return ownedDevices[account];\n    }\n\n    function getSpecsById(uint256 specId) public view returns (Spec memory) {\n        require(specId < specs.length, \"Spec does not exist\");\n        return specs[specId];\n    }\n\n    function getSpecsByModel(string memory model)\n        public\n        view\n        returns (Spec memory)\n    {\n        uint256 specId = modelToSpecId[model];\n\n        if (specId != 0) return specs[specId];\n    }\n\n    function createNewSpec(\n        string memory model,\n        string memory color,\n        uint256 price,\n        bytes memory others\n    ) internal onlyOwner returns (uint256) {\n        specs.push(Spec(model, color, price, others));\n        return specs.length - 1;\n    }\n\n    function updateSpec(\n        uint256 id,\n        string calldata model,\n        string calldata color,\n        uint256 price,\n        bytes calldata others\n    ) external onlyOwner {\n        specs[id] = Spec(model, color, price, others);\n    }\n\n    function _incrementTokenTypeId() private {\n        _currentTokenId = _currentTokenId.add(1);\n    }\n\n    function totalSupply(uint256 id) public view returns (uint256) {\n        return tokenSupply[id];\n    }\n\n    function increaseTotalSupply(uint256 id, uint256 amount) public {\n        require(\n            _approvedStores[msg.sender] == true,\n            \"Only approved store can mint token.\"\n        );\n        tokenSupply[id] = tokenSupply[id].add(amount);\n    }\n\n    function maxSupply(uint256 id) public view returns (uint256) {\n        return tokenMaxSupply[id];\n    }\n\n    function isOwned(address account, uint256 id) public view returns (bool) {\n        uint256[] memory devices = ownedDevices[account];\n        for (uint256 i = 0; i < devices.length; i++) {\n            if (devices[i] == id) return true;\n        }\n        return false;\n    }\n\n    function createDevice(\n        uint256 _maxSupply,\n        uint256 _initialSupply,\n        string calldata uri,\n        string calldata model,\n        string calldata color,\n        uint256 price,\n        bytes calldata data\n    ) external onlyOwner returns (uint256 tokenId) {\n        require(\n            _initialSupply <= _maxSupply,\n            \"Initial supply cannot be more max supply\"\n        );\n        uint256 id = _currentTokenId;\n\n        if (bytes(uri).length > 0) {\n            emit URI(uri, id);\n        }\n\n        if (_initialSupply != 0) {\n            _mint(msg.sender, id, _initialSupply, data);\n            ownedDevices[msg.sender].push(id);\n        }\n\n        tokenSupply[id] = _initialSupply;\n        tokenMaxSupply[id] = _maxSupply;\n\n        modelToSpecId[model] = createNewSpec(model, color, price, \"\");\n\n        _incrementTokenTypeId();\n        return id;\n    }\n\n    function mint(\n        address account,\n        uint256 id,\n        uint256 amount,\n        bytes memory data\n    ) public {\n        require(\n            _approvedStores[msg.sender] == true,\n            \"Only approved store can mint token.\"\n        );\n        require(id <= _currentTokenId, \"Id not found\");\n        _mint(account, id, amount, data);\n        if (!isOwned(account, id)) {\n            ownedDevices[account].push(id);\n        }\n    }\n\n    fallback() external {\n        revert();\n    }\n}\n",
  "sourcePath": "/Users/chientm/Workspace/blockchain/Farming/phonefarm/blockchain/contracts/Devices.sol",
  "compiler": {
    "name": "solc",
    "version": "0.6.6+commit.6c089d02.Emscripten.clang"
  },
  "schemaVersion": "3.2.5",
  "updatedAt": "2020-10-20T08:56:41.574Z",
  "networkType": "ethereum",
  "devdoc": {
    "methods": {
      "balanceOf(address,uint256)": {
        "details": "See {IERC1155-balanceOf}.     * Requirements:     * - `account` cannot be the zero address."
      },
      "balanceOfBatch(address[],uint256[])": {
        "details": "See {IERC1155-balanceOfBatch}.     * Requirements:     * - `accounts` and `ids` must have the same length."
      },
      "isApprovedForAll(address,address)": {
        "details": "See {IERC1155-isApprovedForAll}."
      },
      "owner()": {
        "details": "Returns the address of the current owner."
      },
      "renounceOwnership()": {
        "details": "Leaves the contract without owner. It will not be possible to call `onlyOwner` functions anymore. Can only be called by the current owner.     * NOTE: Renouncing ownership will leave the contract without an owner, thereby removing any functionality that is only available to the owner."
      },
      "safeBatchTransferFrom(address,address,uint256[],uint256[],bytes)": {
        "details": "See {IERC1155-safeBatchTransferFrom}."
      },
      "safeTransferFrom(address,address,uint256,uint256,bytes)": {
        "details": "See {IERC1155-safeTransferFrom}."
      },
      "setApprovalForAll(address,bool)": {
        "details": "See {IERC1155-setApprovalForAll}."
      },
      "supportsInterface(bytes4)": {
        "details": "See {IERC165-supportsInterface}.     * Time complexity O(1), guaranteed to always use less than 30 000 gas."
      },
      "transferOwnership(address)": {
        "details": "Transfers ownership of the contract to a new account (`newOwner`). Can only be called by the current owner."
      },
      "uri(uint256)": {
        "details": "See {IERC1155MetadataURI-uri}.     * This implementation returns the same URI for *all* token types. It relies on the token type ID substitution mechanism https://eips.ethereum.org/EIPS/eip-1155#metadata[defined in the EIP].     * Clients calling this function must replace the `\\{id\\}` substring with the actual token type ID."
      }
    }
  },
  "userdoc": {
    "methods": {}
  }
}