{
  "contractName": "PreSale",
  "abi": [
    {
      "inputs": [
        {
          "internalType": "contract PhoneToken",
          "name": "_phone",
          "type": "address"
        }
      ],
      "stateMutability": "nonpayable",
      "type": "constructor"
    },
    {
      "anonymous": false,
      "inputs": [
        {
          "indexed": true,
          "internalType": "address",
          "name": "buyer",
          "type": "address"
        },
        {
          "indexed": false,
          "internalType": "uint256",
          "name": "phoneAmount",
          "type": "uint256"
        },
        {
          "indexed": false,
          "internalType": "uint256",
          "name": "rate",
          "type": "uint256"
        }
      ],
      "name": "BuyToken",
      "type": "event"
    },
    {
      "anonymous": false,
      "inputs": [
        {
          "indexed": true,
          "internalType": "address",
          "name": "previousOwner",
          "type": "address"
        },
        {
          "indexed": true,
          "internalType": "address",
          "name": "newOwner",
          "type": "address"
        }
      ],
      "name": "OwnershipTransferred",
      "type": "event"
    },
    {
      "anonymous": false,
      "inputs": [
        {
          "indexed": false,
          "internalType": "address",
          "name": "",
          "type": "address"
        },
        {
          "indexed": false,
          "internalType": "uint256",
          "name": "",
          "type": "uint256"
        }
      ],
      "name": "Received",
      "type": "event"
    },
    {
      "inputs": [],
      "name": "lock",
      "outputs": [
        {
          "internalType": "bool",
          "name": "",
          "type": "bool"
        }
      ],
      "stateMutability": "view",
      "type": "function",
      "constant": true
    },
    {
      "inputs": [],
      "name": "owner",
      "outputs": [
        {
          "internalType": "address",
          "name": "",
          "type": "address"
        }
      ],
      "stateMutability": "view",
      "type": "function",
      "constant": true
    },
    {
      "inputs": [],
      "name": "phone",
      "outputs": [
        {
          "internalType": "contract PhoneToken",
          "name": "",
          "type": "address"
        }
      ],
      "stateMutability": "view",
      "type": "function",
      "constant": true
    },
    {
      "inputs": [],
      "name": "rate",
      "outputs": [
        {
          "internalType": "uint256",
          "name": "",
          "type": "uint256"
        }
      ],
      "stateMutability": "view",
      "type": "function",
      "constant": true
    },
    {
      "inputs": [],
      "name": "renounceOwnership",
      "outputs": [],
      "stateMutability": "nonpayable",
      "type": "function"
    },
    {
      "inputs": [
        {
          "internalType": "address",
          "name": "newOwner",
          "type": "address"
        }
      ],
      "name": "transferOwnership",
      "outputs": [],
      "stateMutability": "nonpayable",
      "type": "function"
    },
    {
      "stateMutability": "payable",
      "type": "receive",
      "payable": true
    },
    {
      "inputs": [],
      "name": "lockIn",
      "outputs": [],
      "stateMutability": "nonpayable",
      "type": "function"
    },
    {
      "inputs": [],
      "name": "unlock",
      "outputs": [],
      "stateMutability": "nonpayable",
      "type": "function"
    },
    {
      "inputs": [
        {
          "internalType": "uint256",
          "name": "_newRate",
          "type": "uint256"
        }
      ],
      "name": "changeRate",
      "outputs": [],
      "stateMutability": "nonpayable",
      "type": "function"
    },
    {
      "inputs": [],
      "name": "buyTokenPhone",
      "outputs": [],
      "stateMutability": "payable",
      "type": "function",
      "payable": true
    },
    {
      "inputs": [],
      "name": "getBalanceETH",
      "outputs": [
        {
          "internalType": "uint256",
          "name": "",
          "type": "uint256"
        }
      ],
      "stateMutability": "view",
      "type": "function",
      "constant": true
    },
    {
      "inputs": [],
      "name": "getBalancePHONE",
      "outputs": [
        {
          "internalType": "uint256",
          "name": "",
          "type": "uint256"
        }
      ],
      "stateMutability": "view",
      "type": "function",
      "constant": true
    },
    {
      "inputs": [
        {
          "internalType": "uint256",
          "name": "_amount",
          "type": "uint256"
        }
      ],
      "name": "withdrawETH",
      "outputs": [],
      "stateMutability": "nonpayable",
      "type": "function"
    },
    {
      "inputs": [
        {
          "internalType": "uint256",
          "name": "_amount",
          "type": "uint256"
        }
      ],
      "name": "withdrawPHONE",
      "outputs": [],
      "stateMutability": "nonpayable",
      "type": "function"
    }
  ],
  "bytecode": "0x608060405234801561001057600080fd5b50604051611a53380380611a538339818101604052602081101561003357600080fd5b8101908080519060200190929190505050600061005461015d60201b60201c565b9050806000806101000a81548173ffffffffffffffffffffffffffffffffffffffff021916908373ffffffffffffffffffffffffffffffffffffffff1602179055508073ffffffffffffffffffffffffffffffffffffffff16600073ffffffffffffffffffffffffffffffffffffffff167f8be0079c531659141344cd1fd0a4f28419497f9722a3daafe3b4186f6b6457e060405160405180910390a35080600160006101000a81548173ffffffffffffffffffffffffffffffffffffffff021916908373ffffffffffffffffffffffffffffffffffffffff1602179055506103e86002819055506000600360006101000a81548160ff02191690831515021790555050610165565b600033905090565b6118df806101746000396000f3fe6080604052600436106100e15760003560e01c80638da5cb5b1161007f578063acd1f25411610059578063acd1f25414610321578063f14210a61461034c578063f2fde38b14610387578063f83d08ba146103d857610153565b80638da5cb5b1461025c5780639284f497146102b3578063a69df4b51461030a57610153565b8063349f95f3116100bb578063349f95f3146101a45780633d96d47f146101cf578063715018a61461020a57806374e7493b1461022157610153565b80630757d6d3146101585780631564d706146101625780632c4e722e1461017957610153565b36610153577f88a5966d370b9919b20f3e2c13ff65706f196a4e32cc2c12bf57088f885258743334604051808373ffffffffffffffffffffffffffffffffffffffff1673ffffffffffffffffffffffffffffffffffffffff1681526020018281526020019250505060405180910390a1005b600080fd5b610160610407565b005b34801561016e57600080fd5b50610177610683565b005b34801561018557600080fd5b5061018e610769565b6040518082815260200191505060405180910390f35b3480156101b057600080fd5b506101b961076f565b6040518082815260200191505060405180910390f35b3480156101db57600080fd5b50610208600480360360208110156101f257600080fd5b8101908080359060200190929190505050610850565b005b34801561021657600080fd5b5061021f610b11565b005b34801561022d57600080fd5b5061025a6004803603602081101561024457600080fd5b8101908080359060200190929190505050610c99565b005b34801561026857600080fd5b50610271610de2565b604051808273ffffffffffffffffffffffffffffffffffffffff1673ffffffffffffffffffffffffffffffffffffffff16815260200191505060405180910390f35b3480156102bf57600080fd5b506102c8610e0b565b604051808273ffffffffffffffffffffffffffffffffffffffff1673ffffffffffffffffffffffffffffffffffffffff16815260200191505060405180910390f35b34801561031657600080fd5b5061031f610e31565b005b34801561032d57600080fd5b50610336610f17565b6040518082815260200191505060405180910390f35b34801561035857600080fd5b506103856004803603602081101561036f57600080fd5b8101908080359060200190929190505050610f1f565b005b34801561039357600080fd5b506103d6600480360360208110156103aa57600080fd5b81019080803573ffffffffffffffffffffffffffffffffffffffff169060200190929190505050611101565b005b3480156103e457600080fd5b506103ed61130e565b604051808215151515815260200191505060405180910390f35b600360009054906101000a900460ff161561048a576040517f08c379a00000000000000000000000000000000000000000000000000000000081526004018080602001828103825260118152602001807f6e6f7420696e206c6f636b20737461746500000000000000000000000000000081525060200191505060405180910390fd5b6000600160009054906101000a900473ffffffffffffffffffffffffffffffffffffffff1673ffffffffffffffffffffffffffffffffffffffff166370a08231306040518263ffffffff1660e01b8152600401808273ffffffffffffffffffffffffffffffffffffffff1673ffffffffffffffffffffffffffffffffffffffff16815260200191505060206040518083038186803b15801561052b57600080fd5b505afa15801561053f573d6000803e3d6000fd5b505050506040513d602081101561055557600080fd5b81019080805190602001909291905050509050600061057f6002543461132190919063ffffffff16565b9050818111156105da576040517f08c379a00000000000000000000000000000000000000000000000000000000081526004018080602001828103825260388152602001806117886038913960400191505060405180910390fd5b6106273382600160009054906101000a900473ffffffffffffffffffffffffffffffffffffffff1673ffffffffffffffffffffffffffffffffffffffff166113a79092919063ffffffff16565b3373ffffffffffffffffffffffffffffffffffffffff167ff6f342132c7de5e5a1e99c8efae544c94731f3ff093f5c3c97c6973d9415cdfb82600254604051808381526020018281526020019250505060405180910390a25050565b61068b61145f565b73ffffffffffffffffffffffffffffffffffffffff166000809054906101000a900473ffffffffffffffffffffffffffffffffffffffff1673ffffffffffffffffffffffffffffffffffffffff161461074c576040517f08c379a00000000000000000000000000000000000000000000000000000000081526004018080602001828103825260208152602001807f4f776e61626c653a2063616c6c6572206973206e6f7420746865206f776e657281525060200191505060405180910390fd5b6001600360006101000a81548160ff021916908315150217905550565b60025481565b6000600160009054906101000a900473ffffffffffffffffffffffffffffffffffffffff1673ffffffffffffffffffffffffffffffffffffffff166370a08231306040518263ffffffff1660e01b8152600401808273ffffffffffffffffffffffffffffffffffffffff1673ffffffffffffffffffffffffffffffffffffffff16815260200191505060206040518083038186803b15801561081057600080fd5b505afa158015610824573d6000803e3d6000fd5b505050506040513d602081101561083a57600080fd5b8101908080519060200190929190505050905090565b61085861145f565b73ffffffffffffffffffffffffffffffffffffffff166000809054906101000a900473ffffffffffffffffffffffffffffffffffffffff1673ffffffffffffffffffffffffffffffffffffffff1614610919576040517f08c379a00000000000000000000000000000000000000000000000000000000081526004018080602001828103825260208152602001807f4f776e61626c653a2063616c6c6572206973206e6f7420746865206f776e657281525060200191505060405180910390fd5b6000811161098f576040517f08c379a000000000000000000000000000000000000000000000000000000000815260040180806020018281038252601e8152602001807f5f616d6f756e74206d7573742062652067726561746572207468616e2030000081525060200191505060405180910390fd5b80600160009054906101000a900473ffffffffffffffffffffffffffffffffffffffff1673ffffffffffffffffffffffffffffffffffffffff166370a08231306040518263ffffffff1660e01b8152600401808273ffffffffffffffffffffffffffffffffffffffff1673ffffffffffffffffffffffffffffffffffffffff16815260200191505060206040518083038186803b158015610a2f57600080fd5b505afa158015610a43573d6000803e3d6000fd5b505050506040513d6020811015610a5957600080fd5b81019080805190602001909291905050501015610ac1576040517f08c379a00000000000000000000000000000000000000000000000000000000081526004018080602001828103825260408152602001806118406040913960400191505060405180910390fd5b610b0e3382600160009054906101000a900473ffffffffffffffffffffffffffffffffffffffff1673ffffffffffffffffffffffffffffffffffffffff166113a79092919063ffffffff16565b50565b610b1961145f565b73ffffffffffffffffffffffffffffffffffffffff166000809054906101000a900473ffffffffffffffffffffffffffffffffffffffff1673ffffffffffffffffffffffffffffffffffffffff1614610bda576040517f08c379a00000000000000000000000000000000000000000000000000000000081526004018080602001828103825260208152602001807f4f776e61626c653a2063616c6c6572206973206e6f7420746865206f776e657281525060200191505060405180910390fd5b600073ffffffffffffffffffffffffffffffffffffffff166000809054906101000a900473ffffffffffffffffffffffffffffffffffffffff1673ffffffffffffffffffffffffffffffffffffffff167f8be0079c531659141344cd1fd0a4f28419497f9722a3daafe3b4186f6b6457e060405160405180910390a360008060006101000a81548173ffffffffffffffffffffffffffffffffffffffff021916908373ffffffffffffffffffffffffffffffffffffffff160217905550565b610ca161145f565b73ffffffffffffffffffffffffffffffffffffffff166000809054906101000a900473ffffffffffffffffffffffffffffffffffffffff1673ffffffffffffffffffffffffffffffffffffffff1614610d62576040517f08c379a00000000000000000000000000000000000000000000000000000000081526004018080602001828103825260208152602001807f4f776e61626c653a2063616c6c6572206973206e6f7420746865206f776e657281525060200191505060405180910390fd5b60008111610dd8576040517f08c379a000000000000000000000000000000000000000000000000000000000815260040180806020018281038252601f8152602001807f5f6e657752617465206d7573742062652067726561746572207468616e20300081525060200191505060405180910390fd5b8060028190555050565b60008060009054906101000a900473ffffffffffffffffffffffffffffffffffffffff16905090565b600160009054906101000a900473ffffffffffffffffffffffffffffffffffffffff1681565b610e3961145f565b73ffffffffffffffffffffffffffffffffffffffff166000809054906101000a900473ffffffffffffffffffffffffffffffffffffffff1673ffffffffffffffffffffffffffffffffffffffff1614610efa576040517f08c379a00000000000000000000000000000000000000000000000000000000081526004018080602001828103825260208152602001807f4f776e61626c653a2063616c6c6572206973206e6f7420746865206f776e657281525060200191505060405180910390fd5b6000600360006101000a81548160ff021916908315150217905550565b600047905090565b610f2761145f565b73ffffffffffffffffffffffffffffffffffffffff166000809054906101000a900473ffffffffffffffffffffffffffffffffffffffff1673ffffffffffffffffffffffffffffffffffffffff1614610fe8576040517f08c379a00000000000000000000000000000000000000000000000000000000081526004018080602001828103825260208152602001807f4f776e61626c653a2063616c6c6572206973206e6f7420746865206f776e657281525060200191505060405180910390fd5b6000811161105e576040517f08c379a000000000000000000000000000000000000000000000000000000000815260040180806020018281038252601e8152602001807f5f616d6f756e74206d7573742062652067726561746572207468616e2030000081525060200191505060405180910390fd5b804710156110b7576040517f08c379a00000000000000000000000000000000000000000000000000000000081526004018080602001828103825260398152602001806118076039913960400191505060405180910390fd5b3373ffffffffffffffffffffffffffffffffffffffff166108fc829081150290604051600060405180830381858888f193505050501580156110fd573d6000803e3d6000fd5b5050565b61110961145f565b73ffffffffffffffffffffffffffffffffffffffff166000809054906101000a900473ffffffffffffffffffffffffffffffffffffffff1673ffffffffffffffffffffffffffffffffffffffff16146111ca576040517f08c379a00000000000000000000000000000000000000000000000000000000081526004018080602001828103825260208152602001807f4f776e61626c653a2063616c6c6572206973206e6f7420746865206f776e657281525060200191505060405180910390fd5b600073ffffffffffffffffffffffffffffffffffffffff168173ffffffffffffffffffffffffffffffffffffffff161415611250576040517f08c379a00000000000000000000000000000000000000000000000000000000081526004018080602001828103825260268152602001806117c06026913960400191505060405180910390fd5b8073ffffffffffffffffffffffffffffffffffffffff166000809054906101000a900473ffffffffffffffffffffffffffffffffffffffff1673ffffffffffffffffffffffffffffffffffffffff167f8be0079c531659141344cd1fd0a4f28419497f9722a3daafe3b4186f6b6457e060405160405180910390a3806000806101000a81548173ffffffffffffffffffffffffffffffffffffffff021916908373ffffffffffffffffffffffffffffffffffffffff16021790555050565b600360009054906101000a900460ff1681565b60008083141561133457600090506113a1565b600082840290508284828161134557fe5b041461139c576040517f08c379a00000000000000000000000000000000000000000000000000000000081526004018080602001828103825260218152602001806117e66021913960400191505060405180910390fd5b809150505b92915050565b61145a8363a9059cbb60e01b8484604051602401808373ffffffffffffffffffffffffffffffffffffffff1673ffffffffffffffffffffffffffffffffffffffff16815260200182815260200192505050604051602081830303815290604052907bffffffffffffffffffffffffffffffffffffffffffffffffffffffff19166020820180517bffffffffffffffffffffffffffffffffffffffffffffffffffffffff8381831617835250505050611467565b505050565b600033905090565b60606114c9826040518060400160405280602081526020017f5361666545524332303a206c6f772d6c6576656c2063616c6c206661696c65648152508573ffffffffffffffffffffffffffffffffffffffff166115569092919063ffffffff16565b9050600081511115611551578080602001905160208110156114ea57600080fd5b8101908080519060200190929190505050611550576040517f08c379a000000000000000000000000000000000000000000000000000000000815260040180806020018281038252602a815260200180611880602a913960400191505060405180910390fd5b5b505050565b6060611565848460008561156e565b90509392505050565b606061157985611774565b6115eb576040517f08c379a000000000000000000000000000000000000000000000000000000000815260040180806020018281038252601d8152602001807f416464726573733a2063616c6c20746f206e6f6e2d636f6e747261637400000081525060200191505060405180910390fd5b600060608673ffffffffffffffffffffffffffffffffffffffff1685876040518082805190602001908083835b6020831061163b5780518252602082019150602081019050602083039250611618565b6001836020036101000a03801982511681845116808217855250505050505090500191505060006040518083038185875af1925050503d806000811461169d576040519150601f19603f3d011682016040523d82523d6000602084013e6116a2565b606091505b509150915081156116b757809250505061176c565b6000815111156116ca5780518082602001fd5b836040517f08c379a00000000000000000000000000000000000000000000000000000000081526004018080602001828103825283818151815260200191508051906020019080838360005b83811015611731578082015181840152602081019050611716565b50505050905090810190601f16801561175e5780820380516001836020036101000a031916815260200191505b509250505060405180910390fd5b949350505050565b600080823b90506000811191505091905056fe746f74616c2070686f6e6520746f6b656e20707572636861736564206d757374206265206c657373207468616e2070726553616c6542616c4f776e61626c653a206e6577206f776e657220697320746865207a65726f2061646472657373536166654d6174683a206d756c7469706c69636174696f6e206f766572666c6f775f616d6f756e74206d757374206265206c657373207468616e20746865204554482062616c616e6365206f662074686520636f6e74726163745f616d6f756e74206d757374206265206c657373207468616e207468652050484f4e4520746f6b656e2062616c616e63654f662074686520636f6e74726163745361666545524332303a204552433230206f7065726174696f6e20646964206e6f742073756363656564a2646970667358221220d7006a8fa5c2243b6b8e08e285b7179df865c4955dd45a588c0f7e9362d3a99464736f6c63430006060033",
  "source": "// SPDX-License-Identifier: BoomerTeam\npragma solidity ^0.6.0;\n\nimport \"@openzeppelin/contracts/token/ERC20/SafeERC20.sol\";\nimport \"@openzeppelin/contracts/math/SafeMath.sol\";\nimport \"@openzeppelin/contracts/access/Ownable.sol\";\nimport \"./PhoneToken.sol\";\n\ncontract PreSale is Ownable {\n    using SafeMath for uint256;\n    using SafeERC20 for PhoneToken;\n\n    // The PHONE token!\n    PhoneToken public phone;\n    // Rate of token with ETH\n    uint256 public rate;\n    // lock presale\n    bool public lock;\n\n    // Constructor\n    constructor(PhoneToken _phone) public {\n        phone = _phone;\n        rate = 1000;\n        lock = false;\n    }\n\n    // Functions\n    function lockIn() public onlyOwner {\n        lock = true;\n    }\n\n    function unlock() public onlyOwner {\n        lock = false;\n    }\n\n    /**\n     * @dev change rate of token PHONE\n     * @param _newRate is new rate of token PHONE with ETH\n     */\n    function changeRate(uint256 _newRate) public onlyOwner {\n        require(_newRate > 0, \"_newRate must be greater than 0\");\n        rate = _newRate;\n    }\n\n    event BuyToken(address indexed buyer, uint256 phoneAmount, uint256 rate);\n\n    /**\n     * @dev function buy token PHONE\n     */\n    function buyTokenPhone() public payable {\n        require(!lock, \"not in lock state\");\n        uint256 preSaleBal = phone.balanceOf(address(this));\n        uint256 phoneAmount = (msg.value).mul(rate);\n        require(\n            phoneAmount <= preSaleBal,\n            \"total phone token purchased must be less than preSaleBal\"\n        );\n        phone.safeTransfer(msg.sender, phoneAmount);\n        emit BuyToken(msg.sender, phoneAmount, rate);\n    }\n\n    /**\n     * @dev get balance ETH of contract\n     */\n    function getBalanceETH() public view returns (uint256) {\n        return address(this).balance;\n    }\n\n    /**\n     * @dev get balanceOf PHONE token of contract\n     */\n    function getBalancePHONE() public view returns (uint256) {\n        return phone.balanceOf(address(this));\n    }\n\n    /**\n     * @dev function withdraw ETH to account owner\n     * @param _amount is amount withdraw\n     */\n    function withdrawETH(uint256 _amount) public onlyOwner {\n        require(_amount > 0, \"_amount must be greater than 0\");\n        require(\n            address(this).balance >= _amount,\n            \"_amount must be less than the ETH balance of the contract\"\n        );\n        msg.sender.transfer(_amount);\n    }\n\n    /**\n     * @dev function withdraw PHONE token to account owner\n     * @param _amount is amount withdraw\n     */\n    function withdrawPHONE(uint256 _amount) public onlyOwner {\n        require(_amount > 0, \"_amount must be greater than 0\");\n        require(\n            phone.balanceOf(address(this)) >= _amount,\n            \"_amount must be less than the PHONE token balanceOf the contract\"\n        );\n        phone.safeTransfer(msg.sender, _amount);\n    }\n\n    event Received(address, uint256);\n\n    receive() external payable {\n        emit Received(msg.sender, msg.value);\n    }\n}\n",
  "sourcePath": "/Users/dotrungkien/blockchain/phonefarm/blockchain/contracts/PreSale.sol",
  "compiler": {
    "name": "solc",
    "version": "0.6.6+commit.6c089d02.Emscripten.clang"
  },
  "schemaVersion": "3.0.23",
  "updatedAt": "2020-10-13T08:38:18.638Z",
  "networkType": "ethereum",
  "devdoc": {
    "methods": {
      "buyTokenPhone()": {
        "details": "function buy token PHONE"
      },
      "changeRate(uint256)": {
        "details": "change rate of token PHONE",
        "params": {
          "_newRate": "is new rate of token PHONE with ETH"
        }
      },
      "getBalanceETH()": {
        "details": "get balance ETH of contract"
      },
      "getBalancePHONE()": {
        "details": "get balanceOf PHONE token of contract"
      },
      "owner()": {
        "details": "Returns the address of the current owner."
      },
      "renounceOwnership()": {
        "details": "Leaves the contract without owner. It will not be possible to call `onlyOwner` functions anymore. Can only be called by the current owner.     * NOTE: Renouncing ownership will leave the contract without an owner, thereby removing any functionality that is only available to the owner."
      },
      "transferOwnership(address)": {
        "details": "Transfers ownership of the contract to a new account (`newOwner`). Can only be called by the current owner."
      },
      "withdrawETH(uint256)": {
        "details": "function withdraw ETH to account owner",
        "params": {
          "_amount": "is amount withdraw"
        }
      },
      "withdrawPHONE(uint256)": {
        "details": "function withdraw PHONE token to account owner",
        "params": {
          "_amount": "is amount withdraw"
        }
      }
    }
  },
  "userdoc": {
    "methods": {}
  }
}