{
  "contractName": "Store",
  "abi": [
    {
      "inputs": [
        {
          "internalType": "address",
          "name": "deviceContractAddress",
          "type": "address"
        },
        {
          "internalType": "address",
          "name": "iPhoneContractAddress",
          "type": "address"
        }
      ],
      "stateMutability": "nonpayable",
      "type": "constructor"
    },
    {
      "anonymous": false,
      "inputs": [
        {
          "indexed": true,
          "internalType": "address",
          "name": "previousOwner",
          "type": "address"
        },
        {
          "indexed": true,
          "internalType": "address",
          "name": "newOwner",
          "type": "address"
        }
      ],
      "name": "OwnershipTransferred",
      "type": "event"
    },
    {
      "stateMutability": "nonpayable",
      "type": "fallback"
    },
    {
      "inputs": [],
      "name": "owner",
      "outputs": [
        {
          "internalType": "address",
          "name": "",
          "type": "address"
        }
      ],
      "stateMutability": "view",
      "type": "function",
      "constant": true
    },
    {
      "inputs": [],
      "name": "renounceOwnership",
      "outputs": [],
      "stateMutability": "nonpayable",
      "type": "function"
    },
    {
      "inputs": [
        {
          "internalType": "address",
          "name": "newOwner",
          "type": "address"
        }
      ],
      "name": "transferOwnership",
      "outputs": [],
      "stateMutability": "nonpayable",
      "type": "function"
    },
    {
      "inputs": [
        {
          "internalType": "uint256",
          "name": "id",
          "type": "uint256"
        },
        {
          "internalType": "uint256",
          "name": "amount",
          "type": "uint256"
        },
        {
          "internalType": "bytes",
          "name": "data",
          "type": "bytes"
        }
      ],
      "name": "buyDevices",
      "outputs": [
        {
          "internalType": "bool",
          "name": "",
          "type": "bool"
        }
      ],
      "stateMutability": "nonpayable",
      "type": "function"
    },
    {
      "inputs": [
        {
          "internalType": "uint256",
          "name": "amount",
          "type": "uint256"
        }
      ],
      "name": "withdraw",
      "outputs": [],
      "stateMutability": "nonpayable",
      "type": "function"
    }
  ],
  "bytecode": "0x60806040523480156200001157600080fd5b506040516200194738038062001947833981810160405281019062000037919062000190565b6000620000496200017160201b60201c565b9050806000806101000a81548173ffffffffffffffffffffffffffffffffffffffff021916908373ffffffffffffffffffffffffffffffffffffffff1602179055508073ffffffffffffffffffffffffffffffffffffffff16600073ffffffffffffffffffffffffffffffffffffffff167f8be0079c531659141344cd1fd0a4f28419497f9722a3daafe3b4186f6b6457e060405160405180910390a35081600160006101000a81548173ffffffffffffffffffffffffffffffffffffffff021916908373ffffffffffffffffffffffffffffffffffffffff16021790555080600260006101000a81548173ffffffffffffffffffffffffffffffffffffffff021916908373ffffffffffffffffffffffffffffffffffffffff16021790555050506200021f565b600033905090565b6000815190506200018a8162000205565b92915050565b60008060408385031215620001a457600080fd5b6000620001b48582860162000179565b9250506020620001c78582860162000179565b9150509250929050565b6000620001de82620001e5565b9050919050565b600073ffffffffffffffffffffffffffffffffffffffff82169050919050565b6200021081620001d1565b81146200021c57600080fd5b50565b611718806200022f6000396000f3fe608060405234801561001057600080fd5b506004361061005b5760003560e01c80632e1a7d4d14610061578063331f21961461007d578063715018a6146100ad5780638da5cb5b146100b7578063f2fde38b146100d55761005c565b5b600080fd5b61007b60048036038101906100769190610fbf565b6100f1565b005b61009760048036038101906100929190611011565b610334565b6040516100a491906113db565b60405180910390f35b6100b5610966565b005b6100bf610abb565b6040516100cc91906112f9565b60405180910390f35b6100ef60048036038101906100ea9190610f2c565b610ae4565b005b6100f9610ca8565b73ffffffffffffffffffffffffffffffffffffffff166000809054906101000a900473ffffffffffffffffffffffffffffffffffffffff1673ffffffffffffffffffffffffffffffffffffffff1614610187576040517f08c379a000000000000000000000000000000000000000000000000000000000815260040161017e90611456565b60405180910390fd5b6000600260009054906101000a900473ffffffffffffffffffffffffffffffffffffffff1673ffffffffffffffffffffffffffffffffffffffff166370a08231306040518263ffffffff1660e01b81526004016101e491906112f9565b60206040518083038186803b1580156101fc57600080fd5b505afa158015610210573d6000803e3d6000fd5b505050506040513d601f19601f820116820180604052508101906102349190610fe8565b905080821115610279576040517f08c379a000000000000000000000000000000000000000000000000000000000815260040161027090611416565b60405180910390fd5b600260009054906101000a900473ffffffffffffffffffffffffffffffffffffffff1673ffffffffffffffffffffffffffffffffffffffff1663a9059cbb6102bf610abb565b846040518363ffffffff1660e01b81526004016102dd9291906113b2565b602060405180830381600087803b1580156102f757600080fd5b505af115801561030b573d6000803e3d6000fd5b505050506040513d601f19601f8201168201806040525081019061032f9190610f55565b505050565b6000600160009054906101000a900473ffffffffffffffffffffffffffffffffffffffff1673ffffffffffffffffffffffffffffffffffffffff1663561892366040518163ffffffff1660e01b815260040160206040518083038186803b15801561039e57600080fd5b505afa1580156103b2573d6000803e3d6000fd5b505050506040513d601f19601f820116820180604052508101906103d69190610fe8565b8410610417576040517f08c379a000000000000000000000000000000000000000000000000000000000815260040161040e90611496565b60405180910390fd5b600160009054906101000a900473ffffffffffffffffffffffffffffffffffffffff1673ffffffffffffffffffffffffffffffffffffffff1663869f7594856040518263ffffffff1660e01b815260040161047291906114d6565b60206040518083038186803b15801561048a57600080fd5b505afa15801561049e573d6000803e3d6000fd5b505050506040513d601f19601f820116820180604052508101906104c29190610fe8565b600160009054906101000a900473ffffffffffffffffffffffffffffffffffffffff1673ffffffffffffffffffffffffffffffffffffffff1663bd85b039866040518263ffffffff1660e01b815260040161051d91906114d6565b60206040518083038186803b15801561053557600080fd5b505afa158015610549573d6000803e3d6000fd5b505050506040513d601f19601f8201168201806040525081019061056d9190610fe8565b106105ad576040517f08c379a00000000000000000000000000000000000000000000000000000000081526004016105a4906114b6565b60405180910390fd5b6000600160009054906101000a900473ffffffffffffffffffffffffffffffffffffffff1673ffffffffffffffffffffffffffffffffffffffff16632db629c2866040518263ffffffff1660e01b815260040161060a91906114d6565b60006040518083038186803b15801561062257600080fd5b505afa158015610636573d6000803e3d6000fd5b505050506040513d6000823e3d601f19601f8201168201806040525081019061065f9190610f7e565b604001519050600061067a8583610cb090919063ffffffff16565b9050600260009054906101000a900473ffffffffffffffffffffffffffffffffffffffff1673ffffffffffffffffffffffffffffffffffffffff166370a08231336040518263ffffffff1660e01b81526004016106d79190611314565b60206040518083038186803b1580156106ef57600080fd5b505afa158015610703573d6000803e3d6000fd5b505050506040513d601f19601f820116820180604052508101906107279190610fe8565b811115610769576040517f08c379a000000000000000000000000000000000000000000000000000000000815260040161076090611476565b60405180910390fd5b6000600260009054906101000a900473ffffffffffffffffffffffffffffffffffffffff1673ffffffffffffffffffffffffffffffffffffffff166323b872dd3330856040518463ffffffff1660e01b81526004016107ca9392919061132f565b602060405180830381600087803b1580156107e457600080fd5b505af11580156107f8573d6000803e3d6000fd5b505050506040513d601f19601f8201168201806040525081019061081c9190610f55565b9050801561094b57600160009054906101000a900473ffffffffffffffffffffffffffffffffffffffff1673ffffffffffffffffffffffffffffffffffffffff1663731133e9338989896040518563ffffffff1660e01b81526004016108859493929190611366565b600060405180830381600087803b15801561089f57600080fd5b505af11580156108b3573d6000803e3d6000fd5b50505050600160009054906101000a900473ffffffffffffffffffffffffffffffffffffffff1673ffffffffffffffffffffffffffffffffffffffff1663339b377688886040518363ffffffff1660e01b81526004016109149291906114f1565b600060405180830381600087803b15801561092e57600080fd5b505af1158015610942573d6000803e3d6000fd5b50505050610957565b6000935050505061095f565b600193505050505b9392505050565b61096e610ca8565b73ffffffffffffffffffffffffffffffffffffffff166000809054906101000a900473ffffffffffffffffffffffffffffffffffffffff1673ffffffffffffffffffffffffffffffffffffffff16146109fc576040517f08c379a00000000000000000000000000000000000000000000000000000000081526004016109f390611456565b60405180910390fd5b600073ffffffffffffffffffffffffffffffffffffffff166000809054906101000a900473ffffffffffffffffffffffffffffffffffffffff1673ffffffffffffffffffffffffffffffffffffffff167f8be0079c531659141344cd1fd0a4f28419497f9722a3daafe3b4186f6b6457e060405160405180910390a360008060006101000a81548173ffffffffffffffffffffffffffffffffffffffff021916908373ffffffffffffffffffffffffffffffffffffffff160217905550565b60008060009054906101000a900473ffffffffffffffffffffffffffffffffffffffff16905090565b610aec610ca8565b73ffffffffffffffffffffffffffffffffffffffff166000809054906101000a900473ffffffffffffffffffffffffffffffffffffffff1673ffffffffffffffffffffffffffffffffffffffff1614610b7a576040517f08c379a0000000000000000000000000000000000000000000000000000000008152600401610b7190611456565b60405180910390fd5b600073ffffffffffffffffffffffffffffffffffffffff168173ffffffffffffffffffffffffffffffffffffffff161415610bea576040517f08c379a0000000000000000000000000000000000000000000000000000000008152600401610be1906113f6565b60405180910390fd5b8073ffffffffffffffffffffffffffffffffffffffff166000809054906101000a900473ffffffffffffffffffffffffffffffffffffffff1673ffffffffffffffffffffffffffffffffffffffff167f8be0079c531659141344cd1fd0a4f28419497f9722a3daafe3b4186f6b6457e060405160405180910390a3806000806101000a81548173ffffffffffffffffffffffffffffffffffffffff021916908373ffffffffffffffffffffffffffffffffffffffff16021790555050565b600033905090565b600080831415610cc35760009050610d1a565b6000828402905082848281610cd457fe5b0414610d15576040517f08c379a0000000000000000000000000000000000000000000000000000000008152600401610d0c90611436565b60405180910390fd5b809150505b92915050565b600081359050610d2f8161169d565b92915050565b600081519050610d44816116b4565b92915050565b600082601f830112610d5b57600080fd5b8135610d6e610d6982611547565b61151a565b91508082526020830160208301858383011115610d8a57600080fd5b610d9583828461164a565b50505092915050565b600082601f830112610daf57600080fd5b8151610dc2610dbd82611547565b61151a565b91508082526020830160208301858383011115610dde57600080fd5b610de9838284611659565b50505092915050565b600082601f830112610e0357600080fd5b8151610e16610e1182611573565b61151a565b91508082526020830160208301858383011115610e3257600080fd5b610e3d838284611659565b50505092915050565b600060808284031215610e5857600080fd5b610e62608061151a565b9050600082015167ffffffffffffffff811115610e7e57600080fd5b610e8a84828501610df2565b600083015250602082015167ffffffffffffffff811115610eaa57600080fd5b610eb684828501610df2565b6020830152506040610eca84828501610f17565b604083015250606082015167ffffffffffffffff811115610eea57600080fd5b610ef684828501610d9e565b60608301525092915050565b600081359050610f11816116cb565b92915050565b600081519050610f26816116cb565b92915050565b600060208284031215610f3e57600080fd5b6000610f4c84828501610d20565b91505092915050565b600060208284031215610f6757600080fd5b6000610f7584828501610d35565b91505092915050565b600060208284031215610f9057600080fd5b600082015167ffffffffffffffff811115610faa57600080fd5b610fb684828501610e46565b91505092915050565b600060208284031215610fd157600080fd5b6000610fdf84828501610f02565b91505092915050565b600060208284031215610ffa57600080fd5b600061100884828501610f17565b91505092915050565b60008060006060848603121561102657600080fd5b600061103486828701610f02565b935050602061104586828701610f02565b925050604084013567ffffffffffffffff81111561106257600080fd5b61106e86828701610d4a565b9150509250925092565b61108181611614565b82525050565b611090816115cc565b82525050565b61109f816115de565b82525050565b60006110b08261159f565b6110ba81856115aa565b93506110ca818560208601611659565b6110d38161168c565b840191505092915050565b60006110eb6026836115bb565b91507f4f776e61626c653a206e6577206f776e657220697320746865207a65726f206160008301527f64647265737300000000000000000000000000000000000000000000000000006020830152604082019050919050565b60006111516012836115bb565b91507f4e6f7420656e6f7567682062616c616e636500000000000000000000000000006000830152602082019050919050565b60006111916021836115bb565b91507f536166654d6174683a206d756c7469706c69636174696f6e206f766572666c6f60008301527f77000000000000000000000000000000000000000000000000000000000000006020830152604082019050919050565b60006111f76020836115bb565b91507f4f776e61626c653a2063616c6c6572206973206e6f7420746865206f776e65726000830152602082019050919050565b60006112376011836115bb565b91507f4e6f7420656e6f756768206950686f6e650000000000000000000000000000006000830152602082019050919050565b60006112776015836115bb565b91507f44657669636520646f6573206e6f7420657869737400000000000000000000006000830152602082019050919050565b60006112b76012836115bb565b91507f4d617820737570706c79207265616368656400000000000000000000000000006000830152602082019050919050565b6112f38161160a565b82525050565b600060208201905061130e6000830184611087565b92915050565b60006020820190506113296000830184611078565b92915050565b60006060820190506113446000830186611078565b6113516020830185611087565b61135e60408301846112ea565b949350505050565b600060808201905061137b6000830187611078565b61138860208301866112ea565b61139560408301856112ea565b81810360608301526113a781846110a5565b905095945050505050565b60006040820190506113c76000830185611087565b6113d460208301846112ea565b9392505050565b60006020820190506113f06000830184611096565b92915050565b6000602082019050818103600083015261140f816110de565b9050919050565b6000602082019050818103600083015261142f81611144565b9050919050565b6000602082019050818103600083015261144f81611184565b9050919050565b6000602082019050818103600083015261146f816111ea565b9050919050565b6000602082019050818103600083015261148f8161122a565b9050919050565b600060208201905081810360008301526114af8161126a565b9050919050565b600060208201905081810360008301526114cf816112aa565b9050919050565b60006020820190506114eb60008301846112ea565b92915050565b600060408201905061150660008301856112ea565b61151360208301846112ea565b9392505050565b6000604051905081810181811067ffffffffffffffff8211171561153d57600080fd5b8060405250919050565b600067ffffffffffffffff82111561155e57600080fd5b601f19601f8301169050602081019050919050565b600067ffffffffffffffff82111561158a57600080fd5b601f19601f8301169050602081019050919050565b600081519050919050565b600082825260208201905092915050565b600082825260208201905092915050565b60006115d7826115ea565b9050919050565b60008115159050919050565b600073ffffffffffffffffffffffffffffffffffffffff82169050919050565b6000819050919050565b600061161f82611626565b9050919050565b600061163182611638565b9050919050565b6000611643826115ea565b9050919050565b82818337600083830152505050565b60005b8381101561167757808201518184015260208101905061165c565b83811115611686576000848401525b50505050565b6000601f19601f8301169050919050565b6116a6816115cc565b81146116b157600080fd5b50565b6116bd816115de565b81146116c857600080fd5b50565b6116d48161160a565b81146116df57600080fd5b5056fea2646970667358221220b98943c4e9d31406354862572f2a13e1ac8390ccb45e5850ee2b589181fb1aa064736f6c63430006060033",
  "source": "pragma solidity ^0.6.0;\n\nimport \"@openzeppelin/contracts/access/Ownable.sol\";\nimport \"@openzeppelin/contracts/math/SafeMath.sol\";\nimport \"@openzeppelin/contracts/token/ERC20/ERC20.sol\";\nimport \"./Devices.sol\";\n\npragma experimental ABIEncoderV2;\n\ncontract Store is Ownable {\n    using SafeMath for uint256;\n\n    Devices device;\n    ERC20 iPhone;\n\n    constructor(address deviceContractAddress, address iPhoneContractAddress)\n        public\n    {\n        device = Devices(deviceContractAddress);\n        iPhone = ERC20(iPhoneContractAddress);\n    }\n\n    function buyDevices(\n        uint256 id,\n        uint256 amount,\n        bytes memory data\n    ) public returns (bool) {\n        require(id < device.getCurrentTokenId(), \"Device does not exist\");\n        require(\n            device.totalSupply(id) < device.maxSupply(id),\n            \"Max supply reached\"\n        );\n\n        uint256 price = device.getSpecsById(id).price;\n        uint256 totalAmount = price.mul(amount);\n        require(\n            totalAmount <= iPhone.balanceOf(msg.sender),\n            \"Not enough iPhone\"\n        );\n\n        bool transferSuccess = iPhone.transferFrom(\n            msg.sender,\n            address(this),\n            totalAmount\n        );\n\n        if (transferSuccess) {\n            device.mint(msg.sender, id, amount, data);\n            device.increaseTotalSupply(id, amount);\n        } else {\n            return false;\n        }\n\n        return true;\n    }\n\n    function withdraw(uint256 amount) public onlyOwner {\n        uint256 balance = iPhone.balanceOf(address(this));\n        require(amount <= balance, \"Not enough balance\");\n\n        iPhone.transfer(owner(), amount);\n    }\n\n    fallback() external {\n        revert();\n    }\n}\n",
  "sourcePath": "/Users/dotrungkien/blockchain/phonefarm/blockchain/contracts/Store.sol",
  "compiler": {
    "name": "solc",
    "version": "0.6.6+commit.6c089d02.Emscripten.clang"
  },
  "schemaVersion": "3.0.23",
  "updatedAt": "2020-10-13T08:38:18.676Z",
  "networkType": "ethereum",
  "devdoc": {
    "methods": {
      "owner()": {
        "details": "Returns the address of the current owner."
      },
      "renounceOwnership()": {
        "details": "Leaves the contract without owner. It will not be possible to call `onlyOwner` functions anymore. Can only be called by the current owner.     * NOTE: Renouncing ownership will leave the contract without an owner, thereby removing any functionality that is only available to the owner."
      },
      "transferOwnership(address)": {
        "details": "Transfers ownership of the contract to a new account (`newOwner`). Can only be called by the current owner."
      }
    }
  },
  "userdoc": {
    "methods": {}
  }
}